S00C00006C6162352E73726563B4
S11300000C9446000C9465000C9465000C946500F7
S11300100C9465000C9465000C9465000C946500C8
S11300200C9465000C9465000C941D070C946500F9
S11300300C94AD060C9465000C9465000C9465005A
S11300400C9457060C9465000C9465000C946500A0
S11300500C9465000C9439060C9465000C946500AE
S11300600C9465000C9465000C9465000C94650078
S11300700C9465000C9465000C9465000C94650068
S11300800C9465000C94C60E0C94650011241FBEDC
S1130090CFEFD0E1DEBFCDBF11E0A0E0B1E0EEE0F4
S11300A0F7E200E00BBF02C007900D92A235B10742
S11300B0D9F711E0A2E5B1E001C01D92A03BB10760
S11300C0E1F70E94190A0C9485130C940000109215
S11300D0700110926F0110927201109271011092CE
S11300E07A0108951092700110926F0130E03093FC
S11300F0720120937101443009F4D0C0453078F086
S1130100463009F487C0463008F43FC0473009F44C
S11301106AC0483009F450C01BBC1ABC0895413071
S113012009F4A6C04130B0F4843409F428C28534FB
S11301300CF41FC1863409F470C186340CF465C113
S1130140873461F7662309F48EC28DE195E19BBD86
S11301508ABD0895423009F474C04330E9F684340A
S113016009F4EDC185340CF426C1863409F45AC16E
S113017086340CF442C1873489F6662309F409C332
S113018082EA92E09BBD8ABD0895843409F471C16A
S113019085340CF421C1863409F435C286340CF458
S11301A0FEC1873409F0BACF662309F461C287EA35
S11301B090E09BBD8ABD0895843409F445C185341B
S11301C00CF4E8C0863409F43AC186340CF42FC127
S11301D0873409F0A3CF662309F417C380E190E0C4
S11301E09BBD8ABD0895843409F46AC185340CF436
S11301F0AFC0863409F426C286340CF4C8C18734EF
S113020009F08CCF662309F483C289E290E09BBD98
S11302108ABD0895843409F4A2C185340CF487C0DE
S1130220863409F4F5C186340CF4E0C1873409F04E
S113023075CF662309F47BC283E590E09BBD8ABD3C
S11302400895843409F483C185340CF45FC0863482
S113025009F431C186340CF426C1873409F05ECF29
S1130260662309F428C286E495E09BBD8ABD0895FF
S1130270843409F45CC18534C4F1863409F4A4C11E
S113028086340CF499C1873409F048CF662309F405
S1130290FEC18DE89AE09BBD8ABD0895843409F4BB
S11302A066C185348CF0863409F434C186340CF488
S11302B029C1873409F032CF662309F424C280E5CA
S11302C091E09BBD8ABD0895823409F4ABC18334A7
S11302D00CF0A3C1813409F021CF662309F431C2A3
S11302E08BE291E09BBD8ABD0895823409F4A2C1DA
S11302F083340CF05CC1813409F010CF662309F417
S11303002AC287E699E09BBD8ABD0895823409F428
S11303109EC183340CF072C1813409F0FFCE662390
S113032009F4E7C182EB94E09BBD8ABD0895823451
S113033009F4DBC083340CF0B1C0813409F0EECE93
S1130340662309F4BDC18AE490E09BBD8ABD08958B
S1130350823409F4C2C083340CF0BAC0813409F089
S1130360DDCE662309F41FC284E290E09BBD8ABD02
S11303700895823409F4D3C083340CF0BEC08134B0
S113038009F0CCCE662309F409C28EEC92E19BBD40
S11303908ABD0895823409F464C083340CF05CC0CF
S11303A0813409F0BBCE662309F411C28BE090E0DE
S11303B09BBD8ABD0895823409F410C183340CF0C6
S11303C008C1813409F0AACE662309F46AC188E51C
S11303D092E09BBD8ABD0895823409F457C08334EA
S11303E00CF04FC0813409F099CE662309F4F9C1A9
S11303F085E990E09BBD8ABD0895662309F4FBC19D
S113040082E293E09BBD8ABD0895662309F4F8C196
S113041089E199E19BBD8ABD08958DE596E19BBD77
S11304208ABD08958AEC92E09BBD8ABD0895662337
S113043009F4F0C188E190E09BBD8ABD089582E192
S113044090E09BBD8ABD0895662309F4C5C18BE184
S113045090E09BBD8ABD08958CE190E09BBD8ABD70
S11304600895662309F4C2C187E090E09BBD8ABD6C
S11304700895662309F4A1C180EE90E09BBD8ABD76
S113048008958DEE90E09BBD8ABD0895662309F41E
S11304901CC185E890E09BBD8ABD089586E790E085
S11304A09BBD8ABD0895662309F48CC186E496E059
S11304B09BBD8ABD089586E995E09BBD8ABD0895DC
S11304C0662309F475C187E390E09BBD8ABD089556
S11304D08AE390E09BBD8ABD0895662309F4FAC0BF
S11304E080E290E09BBD8ABD0895662309F44CC167
S11304F082E490E09BBD8ABD08958CED9DE19BBD97
S11305008ABD0895662309F43AC180E991E09BBD50
S11305108ABD089584E691E09BBD8ABD0895662353
S113052009F41EC180EC90E19BBD8ABD0895662349
S113053009F4B2C086E19EE09BBD8ABD089566239E
S113054009F4DCC084E893E09BBD8ABD089566236A
S113055009F4F2C08AE097E09BBD8ABD0895662342
S113056009F4F4C08FE690E09BBD8ABD089566232C
S113057009F49CC081EC91E09BBD8ABD089566237B
S113058009F4CBC080E39CE19BBD8ABD089566233A
S113059009F473C081E390E09BBD8ABD089566238E
S11305A009F4E3C087EC90E09BBD8ABD08958DEE0D
S11305B09EE09BBD8ABD0895662309F44FC08DE873
S11305C09CE09BBD8ABD08958EE29BE09BBD8ABDE5
S11305D008958AEB93E09BBD8ABD0895662309F4D0
S11305E07EC087E192E09BBD8ABD0895662309F42D
S11305F07BC083E690E09BBD8ABD089586E797E0C3
S11306009BBD8ABD089581EB90E09BBD8ABD089592
S113061088E590E09BBD8ABD08958CED91E09BBD7B
S11306208ABD0895662309F4A5C08BE091E09BBDC3
S11306308ABD0895662309F475C080E698E09BBDE1
S11306408ABD08958BE290E09BBD8ABD0895662320
S1130650C9F08FE294E09BBD8ABD089588ED9BE0CC
S11306609BBD8ABD08958DEE93E19BBD8ABD08951F
S11306708EE990E09BBD8ABD08958EE290E09BBD1B
S11306808ABD089583EF93E09BBD8ABD089586EFEC
S113069099E09BBD8ABD08958CE49DE09BBD8ABD15
S11306A0089587E392E09BBD8ABD089588EA91E0AE
S11306B09BBD8ABD08958AEF94E09BBD8ABD0895D1
S11306C086E490E09BBD8ABD08958DE790E09BBDD4
S11306D08ABD08958EE190E09BBD8ABD089589EF9F
S11306E091E09BBD8ABD08958DE590E09BBD8ABDD8
S11306F008958FE694E09BBD8ABD089582E593E05A
S11307009BBD8ABD08958DE391E09BBD8ABD08958C
S113071086E290E09BBD8ABD08958AE99AE19BBD7B
S11307208ABD089587EE97E09BBD8ABD08958EE447
S113073090E09BBD8ABD089585EA96E09BBD8ABD85
S113074008958BE191E09BBD8ABD089589E690E010
S11307509BBD8ABD08958FED98E09BBD8ABD089529
S113076080ED9FE09BBD8ABD08958CEB90E09BBD1E
S11307708ABD08958CEF90E09BBD8ABD08958AE7F9
S113078091E09BBD8ABD08958EE390E09BBD8ABD38
S113079008958CE792E09BBD8ABD089580EC91E1B9
S11307A09BBD8ABD089582E290E09BBD8ABD0895F9
S11307B084E390E09BBD8ABD089583ED90E09BBDEA
S11307C08ABD08958BEE95E09BBD8ABD089589E0AE
S11307D090E09BBD8ABD089589E190E09BBD8ABDF0
S11307E008958DE890E09BBD8ABD089585E090E072
S11307F09BBD8ABD089585EF92E09BBD8ABD089597
S113080082EB97E19BBD8ABD08958DE090E09BBD8E
S11308108ABD089585E190E09BBD8ABD0895E1E617
S1130820F0E080818E7F80831092620080E687B939
S11308308FEE86B9089549B32091780130917901FA
S1130840220F331F306E50E002C0559547958A95AC
S1130850E2F781E090E040FF02C080E090E0282BC6
S1130860392B309379012093780181E090EF203087
S1130870390709F080E008950F931F93FC018091DC
S113088094018F77809394012AE030E0CF01B9017D
S11308900E94B60F80939501CB01B9010E94B60F57
S11308A0182F809396014AE040939701CF0164E6A4
S11308B070E00E94B60FCB01B9010E94B60F082F59
S11308C080939801CF0168EE73E00E94B60FCB01CC
S11308D0B9010E94B60F80939901009751F4409397
S11308E09901002331F440939801112311F44093AA
S11308F0960188B38078806588BB1F910F91089515
S11309002091940120682093940180917E0190911C
S11309107F0184389105B9F124FF1EC080915801EC
S11309208D3008F449C090E00C976AE070E00E94B2
S1130930CA0F645F60939901809398018091590173
S11309406AE00E94AA0F809396019093950188B360
S11309508078806588BB0895809158012AE0622FD1
S11309600E94AA0F80939901909398018091590154
S11309700E94AA0F809396019093950188B3807882
S1130980806588BB089524FF23C080915D018D306C
S1130990C8F5882309F042C081E08093990182E080
S11309A08093980180915E016AE00E94AA0F80936F
S11309B0960190939501CBCF8823E9F08C30C1F157
S11309C06AE00E94AA0F8093990190939801B6CF90
S11309D080915D012AE0622F0E94AA0F8093990101
S11309E09093980180915E010E94AA0F80939601D2
S11309F090939501ACCF81E08093990182E080933C
S1130A0098019CCF90E00C976AE070E00E94CA0FB6
S1130A10645F6093990180939801C4CF8C3079F01E
S1130A206AE00E94AA0F8093990190939801BACF2B
S1130A308DE08093990182E0809398017FCF8DE0CF
S1130A408093990182E080939801ACCF87B387604B
S1130A5087BB8DB180658DB9709A089587B7816021
S1130A6087BF83B7856083BF0895A29A87B78061E3
S1130A7087BF8DE08EBD8FEF9FEF9BBD8ABD08952C
S1130A80BF9A87B7806487BF89E785BD8FEF83BD31
S1130A900895139A82EC80938B0089E180938A00F5
S1130AA084E690E090938100809380008AE590E052
S1130AB09093870080938600089590E0AC01440FE2
S1130AC0551F23E030E0042E02C0220F331F0A9486
S1130AD0E2F770E02623372302C0359527954A951F
S1130AE0E2F7DC01AC58BE4FEC91EE0FEE0FE22BB7
S1130AF0F0E0E35CFE4F30813130E9F0323029F030
S1130B00233059F080E02C930895FC01EA58FE4FFD
S1130B103081315030832330A9F7FC01EA58FE4F6D
S1130B208081982F9250923668F0813970F082E07B
S1130B3010822C930895FC01EA58FE4F30813F5FE8
S1130B403083DECF81E01082F4CF80E01082F1CFD9
S1130B5080E969E871E042E00E94700F80E49FE15F
S1130B600197F1F79091890180E060918A0170E02A
S1130B70682B792B8091940181FF5AC0CB01880F97
S1130B80991F880F991F880F991F860F971F8056EA
S1130B909F4F65E070E00E94B60F26E430E077FDD9
S1130BA04BC0ADB7BEB71C970FB6F894BEBF0FBE0F
S1130BB0ADBFEDB7FEB7319680E891E012969C93F5
S1130BC08E93119789E090E0938382838CE091E087
S1130BD095838483CB01880F892F881F990B919566
S1130BE09783868360767070CB01880F991F860F78
S1130BF0971F880F991F880F991F880F991F860FB9
S1130C00971F96958795929582958F7089279F70E7
S1130C10892791878087338722870E943B108DB76D
S1130C209EB70C960FB6F8949EBF0FBE8DBF089565
S1130C3023E430E077FFB5CF8DB79EB70C970FB69E
S1130C40F8949EBF0FBE8DBFEDB7FEB7319680E816
S1130C5091E0ADB7BEB712969C938E93119789E03D
S1130C6090E09383828380E091E0B2CF0E949A0F58
S1130C7008951F920F920FB60F9211248F939F9392
S1130C8085B1843658F495B184E6891B83BD9F9160
S1130C908F910F900FBE0F901F90189581E083BD28
S1130CA09F918F910F900FBE0F901F9018951F92D8
S1130CB00F920FB60F9211242F938F939F938091CD
S1130CC05B0190915C01019690935C0180935B01C0
S1130CD0853F910591F121E0893E9207C1F0809111
S1130CE073018F5F80937301877049F480916F0162
S1130CF09091700101969093700180936F019F9180
S1130D008F912F910F900FBE0F901F901895809187
S1130D109A018F5F80939A0180915A018F5F80932B
S1130D205A0110925C0110925B018091940187FD3D
S1130D300AC0816080939401D2CF80919A018F5F21
S1130D4080939A01CCCF909197019A3021F09AE048
S1130D5090939701EECF9BE0FBCF1F920F920FB6BB
S1130D600F920BB60F921124EF92FF920F931F93E1
S1130D702F933F934F935F936F937F938F939F939F
S1130D80AF93BF93CF93DF93EF93FF93809194013D
S1130D9085FF0FC085B394E0892785BB20916F013F
S1130DA03091700180917101909172012817390777
S1130DB0C8F4FF91EF91DF91CF91BF91AF919F91D3
S1130DC08F917F916F915F914F913F912F911F91DF
S1130DD00F91FF90EF900F900BBE0F900FBE0F90EE
S1130DE01F9018950E942B108C010E942B10EC016F
S1130DF00E942B107C010E942B109C01C80167E00B
S1130E0070E00E94CA0FE82FCE0162E070E00E94F9
S1130E10CA0FF82FC70163E070E00E94CA0F482F81
S1130E204A5FC90160E170E00E94CA0F282F8E2F2B
S1130E308F5B6F2F0E947200BCCF1F920F920FB670
S1130E400F920BB60F921124FF920F931F932F93BF
S1130E503F934F935F936F937F938F939F93AF933E
S1130E60BF93CF93DF93EF93FF932091530127FD1B
S1130E7002C010926C01F0906E013F2D323009F4E3
S1130E809AC0333010F18F2D833009F4ABC0843015
S1130E9009F468C0F394F0926E01FF91EF91DF9131
S1130EA0CF91BF91AF919F918F917F916F915F91FE
S1130EB04F913F912F911F910F91FF900F900BBE77
S1130EC00F900FBE0F901F901895FF2011F58FEF14
S1130ED08BBB1ABA80E788BBC0E0D0E001E010E029
S1130EE08C2F0E941B04882361F0C8010C2E02C0C1
S1130EF0880F991F0A94E2F7209153012827209321
S1130F0053012196C830D10559F788B38F7588BB32
S1130F10C1CF313009F0BECF80917E0190917F0125
S1130F208138910509F4B5C18238910508F0B8C03B
S1130F30009709F012C127FD6EC1207A2093530156
S1130F40822F90E000902C0102C0959587950A9419
S1130F50E2F780FFB1C08FE790E090937F01809328
S1130F607E0198CF8091940186FF8FC090915801A3
S1130F7020915D01921709F4A2C120916201921798
S1130F8009F088CF2091590190916301291709F044
S1130F9081CF20915A0190916401291709F07ACFE9
S1130FA090916C0194FD76CF80628093940190615E
S1130FB090936C016FCF90916D019B3009F420C127
S1130FC080915A018C3309F410C1809159018C33FA
S1130FD009F403C180915801883109F4FBC032E05F
S1130FE0F32E58CF2091940127FD03C080E1809314
S1130FF0970180917E0190917F018138910509F4D8
S113100019C18238910508F05CC0009709F071C0DD
S113101080E0609155010E945D0580935401813008
S113102009F49AC1823009F4E0C1809169015091B8
S11310306801E091580120912D0130912E018C33EB
S113104040F05F5F509368016CE30E94AA0F909395
S113105069015C3308F049C140916701483138F0B7
S1131060842F68E10E94AA0F492F909367014E17BD
S113107009F447C184E690E0821B930B90938700A8
S113108080938600F0906E0105CF90916C0194FDE1
S113109001CF8F7D80939401906190936C01FACE7F
S11310A08438910509F447CF8838910509F443CF72
S11310B08238910509F43FCF10927F0110927E018E
S11310C0E9CE8438910509F44DC08838910509F4B6
S11310D0E5C08238910509F0DDCE90916C0197FD51
S11310E0D9CE80E1822780939401906890936C011B
S11310F0D1CE8F37910509F0CDCE80916C0185FD5D
S113110008C090E292279093940180628F7E80932E
S11311106C01309158013093620120915901209360
S1131120630180915A01865F809364018C3340F09F
S11311306CE30E94AA0F909364012F5F20936301D4
S11311402C3308F4A7CE822F6CE30E94AA0F90934D
S113115063013F5F309362019DCE8F37910509F0A3
S1131160ABCFE9CE81E0609155010E945D0580938B
S11311705401813009F4EAC0823009F450C180E09E
S1131180609155010E945D0580935401813009F4FA
S113119003C1823009F419C180915E0190915D010F
S11311A0983110F010925D018C3338F010925E018A
S11311B080915D018F5F80935D0180916C0186FD5C
S11311C061CF909194019064909394018064809392
S11311D06C0158CF1092580102CF1092590180919E
S11311E058018F5F80935801F7CE809159018F5F2A
S11311F0809359019F5F90936D0110925A01E7CE3D
S113120080915A01843109F0DDCE85E180935A0141
S113121010926D01DACE20FD61C021FD90C022FD47
S1131220CDC023FF37CE88E890E090937F01809370
S11312307E0130CE81E0609155010E945D0580936E
S11312405401813009F4B4C0823009F4E2C080E072
S1131250609155010E945D0580935401813009F429
S1131260A1C0823009F4B9C080915901909158010C
S1131270983110F0109258018C3308F403CF109277
S11312805901809158018F5F80935801F0906E014D
S113129001CE27FF52CE20FFC0CFC7CF90916C0163
S11312A096FDF8CD80E48227809394019064909316
S11312B06C0186FDEFCD8F7D80939401EBCD309151
S11312C0590120915E01321709F057CE30915A012D
S11312D020915F01321709F050CE62CE81E890E090
S11312E090937F0180937E01D5CD409167014F5F3C
S11312F040936701852F6CE30E94AA0F90936801C5
S1131300ADCE9091590180916801981709F0B2CE41
S113131090915A0180916901981709F0ABCE909190
S11313206C0193FDA7CE80919401877F80939401F3
S11313308BE080939701986090936C019BCE82E838
S113134090E090937F0180937E01A4CD80915D0114
S11313508F5F80935D0113CF20912D0130912E0179
S11313602436310530F4265F3F4F30932E0120930D
S11313702D0180919401886080939401E09158013B
S1131380E0936701509159015093680180915A018B
S11313908D5F8093690153CE80915E018F5F80934E
S11313A05E01FCCE809159018F5F809359015ECF1D
S11313B0809158018F5F8093580149CF84E890E071
S11313C090937F0180937E0165CD80915E01882397
S11313D061F1815080935E01E1CE809159018823AF
S11313E031F181508093590141CF809194018860FB
S11313F08093940120912D0130912E012115310506
S113140009F4BCCF2A50304030932E0120932D0193
S1131410B5CF8091580181508093580118CF8091A5
S11314205D01815080935D01AACE80E0B7CE80E05B
S11314301DCFEF92FF920F931F93CF93DF93809171
S113144061008E7F809361001092620080E687B90C
S11314508FEE86B987B7816087BF83B7856083BF06
S1131460A29A87B7806187BF8DE08EBD8FEF9FEF13
S11314709BBD8ABDBF9A87B7806487BF89E785BD56
S11314801FEF13BD139A82EC80938B0089E1809344
S11314908A0084E690E090938100809380008AE53E
S11314A090E0909387008093860087B3876087BB22
S11314B08DB180658DB9709A0E94810F0E946B0D69
S11314C087E690E00E948A0F0E94BC0E8BE0809316
S11314D0970110927F0110927E01169A13B98A9A8D
S11314E0789453E0E52E05E047E0F42EC1E0D0E027
S11314F08091940183FF07C080917E0190917F01C8
S1131500009709F490C00E9480041ABB1BBB809111
S11315105201823009F47DC0E82FF0E0209194015B
S1131520EB56FE4FE081F0E0E85EFE4F90819BBBFE
S113153038B3982F9295907F3078932B98BB8F5F18
S1131540602F0E94AA0F9093520187B3816F87BBCB
S113155026FF36C080919A016F2D0E94AA0FAE011A
S113156002C0440F551F9A95E2F730915301307829
S1131570342B3FB9779BFECF929A92981E981E9A6D
S1131580779BFECF8FB180935501822F20FD36C00B
S113159086FD1EC080915601882309F44BC0E0915A
S11315A05701F0E0E557FE4F80810E941B0D8091AA
S11315B05701873009F45AC08F5F8093570198CF41
S11315C080915301807890917E01892B8FB9D2CF7D
S11315D0246020939401E0915701F0E0E15DFE4F17
S11315E080810E941B0D809157018D3029F7109244
S11315F0570181E060E00E94BD0B7ACF0E94A805EC
S11316000E943606209194012E7F20939401822F0C
S1131610BFCF2091940127FD26C0E0925201E3E060
S1131620F0E083E07DCF80912D0190912E010E9406
S11316303C046BCFE0915701F0E0E058FE4F80810D
S11316400E941B0D80915701873009F0B5CF10928D
S1131650570182E060E00E94BD0B809156018F5FCC
S11316608093560145CFE2E0F0E05ACF1092570143
S113167081E060E00E94BD0B80915601815080930F
S1131680560136CFE2E6F0E0808188608083808175
S1131690877F808308951FB8779BFECF81E08FB941
S11316A0779BFECF80916200886080936200809176
S11316B06200877F8093620080E991E00197F1F7EF
S11316C080E49FE10197F1F708951FB8779BFECF5F
S11316D080E88FB9779BFECF809162008860809309
S11316E0620080916200877F8093620080E991E0CC
S11316F00197F1F708951FB8779BFECF80EC8FB95F
S1131700779BFECF80916200886080936200809115
S11317106200877F8093620080E991E00197F1F78E
S113172008951FB8779BFECF8FE08FB9779BFECFCC
S11317308091620088608093620080916200877F5C
S11317408093620080E991E00197F1F708951FB852
S1131750779BFECF8CE08FB9779BFECF80916200A0
S113176088608093620080916200877F809362002A
S113177080E991E00197F1F70895603120F4813018
S113178019F08230B9F0089560581FB8779BFECFE6
S11317906FB9779BFECF809162008860809362006E
S11317A080916200877F8093620080E991E00197D5
S11317B0F1F708956054E9CF80E190E061E050E2F0
S11317C020E931E06FB9779BFECF5FB9779BFECFFD
S11317D04091620048604093620040916200477FFC
S11317E040936200F9013197F1F7019759F7089591
S11317F0843608F45BC090E09F5F84568436E0F73B
S1131800992309F453C021E02FB9779BFECF905D53
S11318109FB9779BFECF909162009860909362008D
S113182090916200977F90936200E0E9F1E0319734
S1131830F1F721E08A30B0F190E09F5F8A508A305E
S1131840E0F7992379F121E02FB9779BFECF905DE2
S11318509FB9779BFECF909162009860909362004D
S113186090916200977F90936200E0E9F1E03197F4
S1131870F1F78823E9F0805D91E09FB9779BFECF73
S11318808FB9779BFECF809162008860809362005D
S113189080916200877F8093620080E991E00197E4
S11318A0F1F70895213029F790E0CDCF20E0C2CFA1
S11318B080E3E2CF27E28031920708F4B4C020E04D
S11318C02F5F8051974237E280319307C8F7222374
S11318D009F4A9C031E03FB9779BFECF205D2FB951
S11318E0779BFECF209162002860209362002091B4
S11318F06200277F20936200E0E9F1E03197F1F77D
S113190031E043E0883E940708F489C020E02F5F6B
S1131910885E934043E0883E9407C8F7222309F485
S11319207EC031E03FB9779BFECF205D2FB9779B16
S1131930FECF209162002860209362002091620013
S1131940277F20936200E0E9F1E03197F1F731E07D
S11319508436910508F45FC020E02F5F84569040E0
S113196084369105D0F7222309F455C031E03FB9FC
S1131970779BFECF205D2FB9779BFECF209162002D
S113198028602093620020916200277F20936200E8
S1131990E0E9F1E03197F1F731E08A309105B8F1EF
S11319A020E02F5F0A978A309105D8F7222379F136
S11319B031E03FB9779BFECF205D2FB9779BFECFF7
S11319C02091620028602093620020916200277FAA
S11319D020936200E0E9F1E03197F1F7009749F1D3
S11319E0805D91E09FB9779BFECF8FB9779BFECF47
S11319F08091620088608093620080916200877F9A
S1131A008093620080E991E00197F1F70895313005
S1131A1029F720E0CDCF313051F030E0BECF313066
S1131A2021F030E095CF30E06CCF20E07ACF20E099
S1131A309DCF80E3D6CF91E09FB9779BFECF8FB93E
S1131A40779BFECF809162008860809362008091D2
S1131A506200877F8093620080E991E00197F1F74B
S1131A60089520E030E060E071E040E951E07FB9A2
S1131A70779BFECF280F391FF90120812FB9779B5F
S1131A80FECF2091620028602093620020916200C2
S1131A90277F20936200FA013197F1F76F5F262FB9
S1131AA030E0FC0101900020E9F7E81BF90B3297C4
S1131AB0E217F307E0F60895E1E6F0E0808188603C
S1131AC0808388B388BB87B3876087BB80E58DB983
S1131AD081E08EB9089580916100886080936100EF
S1131AE080E69AEE0197F1F71FB8779BFECF88E363
S1131AF08FB9779BFECF80916200886080936200EB
S1131B0080916200877F8093620080E991E0019771
S1131B10F1F780E29EE40197F1F71FB8779BFECFBF
S1131B2088E08FB9779BFECF8091620088608093B4
S1131B30620080916200877F8093620080E991E077
S1131B400197F1F780E49FE10197F1F71FB8779BC4
S1131B50FECF86E08FB9779BFECF809162008860CC
S1131B608093620080916200877F8093620080E9A5
S1131B7091E00197F1F71FB8779BFECF80E48FB90E
S1131B80779BFECF80916200886080936200809191
S1131B906200877F8093620080E991E00197F1F70A
S1131BA081E08FB9779BFECF8EE08FB9779BFECF14
S1131BB08091620088608093620080916200877FD8
S1131BC08093620080E991E00197F1F781E08FB999
S1131BD0779BFECF8BE18FB9779BFECF809162001C
S1131BE088608093620080916200877F80936200A6
S1131BF080E991E00197F1F781E08FB9779BFECFFF
S1131C0081E18FB9779BFECF8091620088608093D9
S1131C10620080916200877F8093620080E991E096
S1131C200197F1F781E08FB9779BFECF81E18FB9FE
S1131C30779BFECF809162008860809362008091E0
S1131C406200877F8093620080E991E00197F1F759
S1131C5081E08FB9779BFECF81E18FB9779BFECF6F
S1131C608091620088608093620080916200877F27
S1131C708093620080E991E00197F1F781E08FB9E8
S1131C80779BFECF81E18FB9779BFECF8091620075
S1131C9088608093620080916200877F80936200F5
S1131CA080E991E00197F1F781E08FB9779BFECF4E
S1131CB081E18FB9779BFECF809162008860809329
S1131CC0620080916200877F8093620080E991E0E6
S1131CD00197F1F781E08FB9779BFECF8FE18FB940
S1131CE0779BFECF80916200886080936200809130
S1131CF06200877F8093620080E991E00197F1F7A9
S1131D001FB8779BFECF81E08FB9779BFECF809180
S1131D10620088608093620080916200877F809374
S1131D20620080E991E00197F1F780E29EE4019777
S1131D30F1F71FB8779BFECF8CE08FB9779BFECF6E
S1131D408091620088608093620080916200877F46
S1131D508093620080E991E00197F1F7089584E0AF
S1131D6080937C0180E680937D0180E96CE771E0DB
S1131D7042E00E945F0F089510927C0180E96CE7B5
S1131D8071E041E00E945F0F089508951F920F9241
S1131D900FB60F920BB60F9211242F933F938F938C
S1131DA09F93EF93FF93809171008832E1F1893220
S1131DB0C8F0803409F44DC0813478F1803509F4D9
S1131DC060C08835B1F480917B01E091AC01F09161
S1131DD0AD01E80FF11D80917300808384E9809345
S1131DE074000EC0803109F442C08831E1F08830BB
S1131DF0F1F1809171008093AB0184E080937400D1
S1131E00FF91EF919F918F913F912F910F900BBE76
S1131E100F900FBE0F901F901895883351F785EAE5
S1131E2080937400EDCF80917B019091AF0189176D
S1131E30A8F6E091AC01F091AD01E80FF11D90819D
S1131E40909373008F5F80937B0185E88093740087
S1131E50D7CF20917B018091AF0130E090E00197D2
S1131E602817390724F585EC80937400C9CF809135
S1131E70AE018093730010927B0185E88093740017
S1131E80BFCF20917B01E091AC01F091AD01E20F55
S1131E90F11D8091730080832F5F20937B018091DB
S1131EA0AF0130E090E0019728173907E4F285E8A4
S1131EB080937400A5CF80917400817008959091EF
S1131EC0740090FDFCCF8E7F8093AE017093AD01C2
S1131ED06093AC014093AF0185EA80937400089548
S1131EE09091740090FDFCCF81608093AE0170935B
S1131EF0AD016093AC014093AF0185EA8093740017
S1131F0008958FEF80937300109271008CE080939A
S1131F10700008959093900089B988E18AB986E0A9
S1131F208093950008955D9BFECF8CB908958BB185
S1131F30807808955F9BFECF8CB10895FC01808169
S1131F40882339F031965D9BFECF8CB9819188232B
S1131F50D1F70895991B79E004C0991F961708F0EA
S1131F60961B881F7A95C9F780950895AA1BBB1BF9
S1131F7051E107C0AA1FBB1FA617B70710F0A61B85
S1131F80B70B881F991F5A95A9F780959095BC01A6
S1131F90CD01089597FB092E07260AD077FD04D0BA
S1131FA0E5DF06D000201AF4709561957F4F0895FF
S1131FB0F6F7909581959F4F0895AF92BF92CF9277
S1131FC0DF92EF92FF920F931F93CF93DF93EC0175
S1131FD0688179818A819B816115710581059105EB
S1131FE021F464E279ED8BE597E02DE133EF41E0F4
S1131FF050E00E94481379018A0127EA31E440E065
S113200050E00E9429135B016C01C801B7012CEE5A
S113201034EF4FEF5FEF0E9429136A0D7B1D8C1D77
S11320209D1D97FF04C061507040804090486883B4
S113203079838A839B837F77CB01DF91CF911F9133
S11320400F91FF90EF90DF90CF90BF90AF900895E5
S11320500E94DD0F08958DE491E00E94DD0F089544
S1132060A0E0B0E080934D0190934E01A0934F0106
S1132070B093500108950F931F93DF93CF93CDB77F
S1132080DEB72E970FB6F894DEBF0FBECDBF0D8915
S11320901E898F89988D26E02C831A83098397FFE4
S11320A002C080E090E801979E838D839E01255EA7
S11320B03F4FCE010196698D7A8DA9010E94791056
S11320C04D815E8157FD0AC02F8138854217530721
S11320D00CF49A01020F131FF80110822E960FB60A
S11320E0F894DEBF0FBECDBFCF91DF911F910F914A
S11320F008952F923F924F925F926F927F928F92A8
S11321009F92AF92BF92CF92DF92EF92FF920F9382
S11321101F93DF93CF93CDB7DEB72C970FB6F89408
S1132120DEBF0FBECDBF6C011B018A01FC0117820B
S11321301682838181FFD1C12E010894411C511C58
S1132140F6019381F10193FD859193FF81911F0124
S1132150882309F4BEC1853239F493FD859193FF38
S113216081911F01853229F490E0B6010E949F12EB
S1132170E7CFEE24FF2420E02032B0F48B3269F064
S11321808C3228F4803251F0833271F40BC08D32DA
S113219039F0803349F421602CC02260246029C0C6
S11321A0286027C0206125C027FD2CC0382F30535C
S11321B03A3098F426FF08C08E2D880FE82EEE0CD6
S11321C0EE0CE80EE30E15C08F2D880FF82EFF0CD1
S11321D0FF0CF80EF30E20620CC08E3221F426FDA3
S11321E078C1206406C08C3611F4206802C0883699
S11321F049F4F10193FD859193FF81911F01882397
S113220009F0BACF982F9554933018F09052933028
S113221028F40C5F1F4FFFE3F9830DC0833631F0C0
S1132220833771F0833509F060C022C0F8018081E2
S113223089830E5F1F4F420171E0A72EB12C16C097
S113224062E0662E712C600E711EF8018080918010
S113225026FF03C06E2D70E002C06FEF7FEFC40154
S11322602C870E9494125C0183012C852F7717C060
S113227052E0652E712C600E711EF80180809180F1
S113228026FF03C06E2D70E002C06FEF7FEFC40124
S11322902C870E9489125C012C852068830123FD10
S11322A020C008C080E290E0B6012C870E949F12F3
S11322B0FA942C858F2D90E0A816B90698F311C0D6
S11322C0F40127FD859127FF81914F0190E0B6012C
S11322D02C870E949F122C85F110FA940894A1086F
S11322E0B108A114B10461F7F1C0843611F0893644
S11322F049F527FF08C0F8016081718182819381CB
S11323000C5F1F4F09C0F80160817181882777FD38
S11323108095982F0E5F1F4F4FE6B42EB22297FF81
S113232009C090958095709561957F4F8F4F9F4F11
S1132330F0E8BF2AA2012AE030E00E94CB12782EF6
S1132340741845C0853731F43FEEB32EB2222AE02B
S113235030E025C099EFB92EB2228F36C1F0803714
S113236020F4883509F0B5C00DC0803721F08837D6
S113237009F0AFC002C020E1B22AB4FE0BC084E071
S1132380B82A08C0B4FE09C0E6E0BE2A06C028E0A8
S113239030E005C020E130E002C020E132E0B7FEC9
S11323A008C0F80160817181828193810C5F1F4FA5
S11323B007C0F8016081718180E090E00E5F1F4FDB
S11323C0A2010E94CB12782E7418FFE7BF22B6FE3A
S11323D00BC02EEFB2227E1438F4B4FE07C0B2FC58
S11323E005C08FEEB82202C0A72C01C0AE2C8B2DE5
S11323F090E0B4FE0DC0FE01E70DF11D20812033F5
S113240019F4E9EEBE2209C0A394B2FE06C004C0CA
S113241086789070009709F0A3948B2C9924B3FCD0
S113242014C0B0FE0FC0AF1428F4E72CEF0CEA1868
S1132430AF2C08C0E72C06C080E290E0B6010E94F1
S11324409F12A394AF14C0F304C0AF1410F4FA188D
S113245001C0FF2484FE0FC080E390E0B6010E9417
S11324609F1282FE1FC081FE03C088E590E010C069
S113247088E790E00DC0C40186789070009791F0D1
S113248081FC02C080E201C08BE2B7FC8DE290E0E7
S1132490B6010E949F1206C080E390E0B6010E943C
S11324A09F12EA947E14C0F37A94F201E70DF11DB1
S11324B0808190E0B6010E949F127720A9F706C0A0
S11324C080E290E0B6010E949F12FA94FF20C1F7C7
S11324D037CEF6012681378102C02FEF3FEFC901C5
S11324E02C960FB6F894DEBF0FBECDBFCF91DF910F
S11324F01F910F91FF90EF90DF90CF90BF90AF901E
S11325009F908F907F906F905F904F903F902F900F
S11325100895FC010590615070400110D8F7809532
S113252090958E0F9F1F0895FC016150704001909B
S11325300110D8F7809590958E0F9F1F08950F93E3
S11325401F93CF93DF938C01EB018B8181FF1BC021
S113255082FF0DC02E813F818C819D812817390710
S113256064F4E881F9810193F983E88306C0E8857E
S1132570F985802F0995009731F48E819F8101960A
S11325809F838E8302C00FEF1FEFC801DF91CF91AD
S11325901F910F910895FA01AA27283051F1203193
S11325A081F1E8946F936E7F6E5F7F4F8F4F9F4FE3
S11325B0AF4FB1E03ED0B4E03CD0670F781F891F25
S11325C09A1FA11D680F791F8A1F911DA11D6A0FF3
S11325D0711D811D911DA11D20D009F468943F91A6
S11325E02AE0269F11243019305D3193DEF6CF01A5
S11325F00895462F4770405D4193B3E00FD0C9F76B
S1132600F6CF462F4F70405D4A3318F0495D31FDD7
S11326104052419302D0A9F7EACFB4E0A69597952A
S1132620879577956795BA95C9F700976105710500
S113263008959B01AC010A2E06945795479537954A
S11326402795BA95C9F7620F731F841F951FA01DA4
S11326500895629FD001739FF001829FE00DF11DE8
S1132660649FE00DF11D929FF00D839FF00D749F08
S1132670F00D659FF00D9927729FB00DE11DF91FB4
S1132680639FB00DE11DF91FBD01CF011124089511
S113269097FB092E05260ED057FD04D014D00AD07E
S11326A0001C38F450954095309521953F4F4F4F7D
S11326B05F4F0895F6F790958095709561957F4FDB
S11326C08F4F9F4F0895A1E21A2EAA1BBB1BFD0139
S11326D00DC0AA1FBB1FEE1FFF1FA217B307E407FD
S11326E0F50720F0A21BB30BE40BF50B661F771F55
S11326F0881F991F1A9469F7609570958095909535
S11127009B01AC01BD01CF010895F894FFCFF9
S113270E2D25642E252D3264202563002025642E6C
S113271E252D326420256300C0F9A4B0999282F865
S113272E8098FFFC40790000000000010532004251
S113273E65617220776173206865726521000102FC
S113274E000200000101000002000201000100006D
S105275E000075
S9030000FC
