:100000000C9446000C9465000C9465000C946500FB
:100010000C9465000C9465000C9465000C946500CC
:100020000C9465000C9465000C941C080C946500FD
:100030000C94AC070C9465000C9465000C9465005E
:100040000C9456070C9465000C9465000C946500A4
:100050000C9465000C9438070C9465000C946500B2
:100060000C9465000C9465000C9465000C9465007C
:100070000C9465000C9465000C9465000C9465006C
:100080000C9465000C949E0F0C94650011241FBE07
:10009000CFEFD0E1DEBFCDBF11E0A0E0B1E0E2EDF7
:1000A000F8E200E00BBF02C007900D92A235B10745
:1000B000D9F711E0A2E5B1E001C01D92A03BB10764
:1000C000E1F70E94180B0C9467140C940000109236
:1000D0006F0110926E0110927101109270011092D6
:1000E0007A01089510926F0110926E0130E0309302
:1000F000710120937001443009F4D0C0453078F08C
:10010000463009F487C0463008F43FC0473009F450
:100110006AC0483009F450C01BBC1ABC0895413075
:1001200009F4A6C04130B0F4843409F428C28534FF
:100130000CF41FC1863409F470C186340CF465C117
:10014000873461F7662309F48EC28DE195E19BBD8A
:100150008ABD0895423009F474C04330E9F684340E
:1001600009F4EDC185340CF426C1863409F45AC172
:1001700086340CF442C1873489F6662309F409C336
:1001800082EA92E09BBD8ABD0895843409F471C16E
:1001900085340CF421C1863409F435C286340CF45C
:1001A000FEC1873409F0BACF662309F461C287EA39
:1001B00090E09BBD8ABD0895843409F445C185341F
:1001C0000CF4E8C0863409F43AC186340CF42FC12B
:1001D000873409F0A3CF662309F417C380E190E0C8
:1001E0009BBD8ABD0895843409F46AC185340CF43A
:1001F000AFC0863409F426C286340CF4C8C18734F3
:1002000009F08CCF662309F483C289E290E09BBD9C
:100210008ABD0895843409F4A2C185340CF487C0E2
:10022000863409F4F5C186340CF4E0C1873409F052
:1002300075CF662309F47BC283E590E09BBD8ABD40
:100240000895843409F483C185340CF45FC0863486
:1002500009F431C186340CF426C1873409F05ECF2D
:10026000662309F428C286E495E09BBD8ABD089503
:10027000843409F45CC18534C4F1863409F4A4C122
:1002800086340CF499C1873409F048CF662309F409
:10029000FEC18DE89AE09BBD8ABD0895843409F4BF
:1002A00066C185348CF0863409F434C186340CF48C
:1002B00029C1873409F032CF662309F424C280E5CE
:1002C00091E09BBD8ABD0895823409F4ABC18334AB
:1002D0000CF0A3C1813409F021CF662309F431C2A7
:1002E0008BE291E09BBD8ABD0895823409F4A2C1DE
:1002F00083340CF05CC1813409F010CF662309F41B
:100300002AC287E699E09BBD8ABD0895823409F42C
:100310009EC183340CF072C1813409F0FFCE662394
:1003200009F4E7C182EB94E09BBD8ABD0895823455
:1003300009F4DBC083340CF0B1C0813409F0EECE97
:10034000662309F4BDC18AE490E09BBD8ABD08958F
:10035000823409F4C2C083340CF0BAC0813409F08D
:10036000DDCE662309F41FC284E290E09BBD8ABD06
:100370000895823409F4D3C083340CF0BEC08134B4
:1003800009F0CCCE662309F409C28EEC92E19BBD44
:100390008ABD0895823409F464C083340CF05CC0D3
:1003A000813409F0BBCE662309F411C28BE090E0E2
:1003B0009BBD8ABD0895823409F410C183340CF0CA
:1003C00008C1813409F0AACE662309F46AC188E520
:1003D00092E09BBD8ABD0895823409F457C08334EE
:1003E0000CF04FC0813409F099CE662309F4F9C1AD
:1003F00085E990E09BBD8ABD0895662309F4FBC1A1
:1004000082E293E09BBD8ABD0895662309F4F8C19A
:1004100089E199E19BBD8ABD08958DE596E19BBD7B
:100420008ABD08958AEC92E09BBD8ABD089566233B
:1004300009F4F0C188E190E09BBD8ABD089582E196
:1004400090E09BBD8ABD0895662309F4C5C18BE188
:1004500090E09BBD8ABD08958CE190E09BBD8ABD74
:100460000895662309F4C2C187E090E09BBD8ABD70
:100470000895662309F4A1C180EE90E09BBD8ABD7A
:1004800008958DEE90E09BBD8ABD0895662309F422
:100490001CC185E890E09BBD8ABD089586E790E089
:1004A0009BBD8ABD0895662309F48CC186E496E05D
:1004B0009BBD8ABD089586E995E09BBD8ABD0895E0
:1004C000662309F475C187E390E09BBD8ABD08955A
:1004D0008AE390E09BBD8ABD0895662309F4FAC0C3
:1004E00080E290E09BBD8ABD0895662309F44CC16B
:1004F00082E490E09BBD8ABD08958CED9DE19BBD9B
:100500008ABD0895662309F43AC180E991E09BBD54
:100510008ABD089584E691E09BBD8ABD0895662357
:1005200009F41EC180EC90E19BBD8ABD089566234D
:1005300009F4B2C086E19EE09BBD8ABD08956623A2
:1005400009F4DCC084E893E09BBD8ABD089566236E
:1005500009F4F2C08AE097E09BBD8ABD0895662346
:1005600009F4F4C08FE690E09BBD8ABD0895662330
:1005700009F49CC081EC91E09BBD8ABD089566237F
:1005800009F4CBC080E39CE19BBD8ABD089566233E
:1005900009F473C081E390E09BBD8ABD0895662392
:1005A00009F4E3C087EC90E09BBD8ABD08958DEE11
:1005B0009EE09BBD8ABD0895662309F44FC08DE877
:1005C0009CE09BBD8ABD08958EE29BE09BBD8ABDE9
:1005D00008958AEB93E09BBD8ABD0895662309F4D4
:1005E0007EC087E192E09BBD8ABD0895662309F431
:1005F0007BC083E690E09BBD8ABD089586E797E0C7
:100600009BBD8ABD089581EB90E09BBD8ABD089596
:1006100088E590E09BBD8ABD08958CED91E09BBD7F
:100620008ABD0895662309F4A5C08BE091E09BBDC7
:100630008ABD0895662309F475C080E698E09BBDE5
:100640008ABD08958BE290E09BBD8ABD0895662324
:10065000C9F08FE294E09BBD8ABD089588ED9BE0D0
:100660009BBD8ABD08958DEE93E19BBD8ABD089523
:100670008EE990E09BBD8ABD08958EE290E09BBD1F
:100680008ABD089583EF93E09BBD8ABD089586EFF0
:1006900099E09BBD8ABD08958CE49DE09BBD8ABD19
:1006A000089587E392E09BBD8ABD089588EA91E0B2
:1006B0009BBD8ABD08958AEF94E09BBD8ABD0895D5
:1006C00086E490E09BBD8ABD08958DE790E09BBDD8
:1006D0008ABD08958EE190E09BBD8ABD089589EFA3
:1006E00091E09BBD8ABD08958DE590E09BBD8ABDDC
:1006F00008958FE694E09BBD8ABD089582E593E05E
:100700009BBD8ABD08958DE391E09BBD8ABD089590
:1007100086E290E09BBD8ABD08958AE99AE19BBD7F
:100720008ABD089587EE97E09BBD8ABD08958EE44B
:1007300090E09BBD8ABD089585EA96E09BBD8ABD89
:1007400008958BE191E09BBD8ABD089589E690E014
:100750009BBD8ABD08958FED98E09BBD8ABD08952D
:1007600080ED9FE09BBD8ABD08958CEB90E09BBD22
:100770008ABD08958CEF90E09BBD8ABD08958AE7FD
:1007800091E09BBD8ABD08958EE390E09BBD8ABD3C
:1007900008958CE792E09BBD8ABD089580EC91E1BD
:1007A0009BBD8ABD089582E290E09BBD8ABD0895FD
:1007B00084E390E09BBD8ABD089583ED90E09BBDEE
:1007C0008ABD08958BEE95E09BBD8ABD089589E0B2
:1007D00090E09BBD8ABD089589E190E09BBD8ABDF4
:1007E00008958DE890E09BBD8ABD089585E090E076
:1007F0009BBD8ABD089585EF92E09BBD8ABD08959B
:1008000082EB97E19BBD8ABD08958DE090E09BBD92
:100810008ABD089585E190E09BBD8ABD0895E1E61B
:10082000F0E080818E7F80831092620080E687B93D
:100830008FEE86B9089549B32091780130917901FE
:10084000220F331F306E50E002C0559547958A95B0
:10085000E2F781E090E040FF02C080E090E0282BCA
:10086000392B309379012093780181E090EF20308B
:10087000390709F080E008950F931F93FC018091E0
:10088000A4018F778093A4012AE030E0CF01B90161
:100890000E9498108093A501CB01B9010E94981085
:1008A000182F8093A6014AE04093A701CF0164E688
:1008B00070E00E949810CB01B9010E949810082F97
:1008C0008093A801CF0168EE73E00E949810CB01DD
:1008D000B9010E9498108093A901009751F44093A8
:1008E000A901002331F44093A801112311F440938E
:1008F000A60188B38078806588BB1F910F91089509
:100900002091A40120682093A40180917E01909100
:100910007F0184389105B9F124FF1EC080915701F1
:100920008D3008F449C090E00C976AE070E00E94B6
:10093000AC10645F6093A9018093A8018091580175
:100940006AE00E948C108093A6019093A50188B361
:100950008078806588BB0895809157012AE0622FD6
:100960000E948C108093A9019093A8018091580156
:100970000E948C108093A6019093A50188B3807883
:10098000806588BB089524FF23C080915C018D3071
:10099000C8F5882309F042C081E08093A90182E074
:1009A0008093A80180915D016AE00E948C10809381
:1009B000A6019093A501CBCF8823E9F08C30C1F13B
:1009C0006AE00E948C108093A9019093A801B6CF91
:1009D00080915C012AE0622F0E948C108093A90113
:1009E0009093A80180915D010E948C108093A601D4
:1009F0009093A501ACCF81E08093A90182E0809320
:100A0000A8019CCF90E00C976AE070E00E94AC10C7
:100A1000645F6093A9018093A801C4CF8C3079F002
:100A20006AE00E948C108093A9019093A801BACF2C
:100A30008DE08093A90182E08093A8017FCF8DE0B3
:100A40008093A90182E08093A801ACCF87B387602F
:100A500087BB8DB180658DB9709A089587B7816025
:100A600087BF83B7856083BF0895A29A87B78061E7
:100A700087BF8DE08EBD8FEF9FEF9BBD8ABD089530
:100A8000BF9A87B7806487BF89E785BD8FEF83BD35
:100A90000895139A82EC80938B0089E180938A00F9
:100AA00084E690E090938100809380008AE590E056
:100AB0009093870080938600089590E0AC01440FE6
:100AC000551F23E030E0042E02C0220F331F0A948A
:100AD000E2F770E02623372302C0359527954A9523
:100AE000E2F7DC01AC58BE4FEC91EE0FEE0FE22BBB
:100AF000F0E0E35CFE4F30813130E9F0323029F034
:100B0000233059F080E02C930895FC01EA58FE4F01
:100B10003081315030832330A9F7FC01EA58FE4F71
:100B20008081982F9250923668F0813970F082E07F
:100B300010822C930895FC01EA58FE4F30813F5FEC
:100B40003083DECF81E01082F4CF80E01082F1CFDD
:100B500080E969E971E042E00E94481080E49FE189
:100B60000197F1F79091990180E060919A0170E00E
:100B7000682B792B8091A40181FF5AC0CB01880F8B
:100B8000991F880F991F880F991F860F971F8056EE
:100B90009F4F65E070E00E94981026E430E077FDFA
:100BA0004BC0ADB7BEB71C970FB6F894BEBF0FBE13
:100BB000ADBFEDB7FEB7319680E991E012969C93F8
:100BC0008E93119789E090E0938382838CE091E08B
:100BD00095838483CB01880F892F881F990B91956A
:100BE0009783868360767070CB01880F991F860F7C
:100BF000971F880F991F880F991F880F991F860FBD
:100C0000971F96958795929582958F7089279F70EB
:100C1000892791878087338722870E941D118DB78E
:100C20009EB70C960FB6F8949EBF0FBE8DBF089569
:100C300023E430E077FFB5CF8DB79EB70C970FB6A2
:100C4000F8949EBF0FBE8DBFEDB7FEB7319680E919
:100C500091E0ADB7BEB712969C938E93119789E041
:100C600090E09383828380E091E0B2CF8F34A9F14A
:100C70008732A9F18E34A9F1833169F18D3499F16C
:100C8000863299F18C3499F1893099F18B34A9F13C
:100C90008532A9F18A34A9F18231A9F18934A9F107
:100CA000843249F1883499F1843099F1873499F18B
:100CB000833299F1863499F1813199F1853499F132
:100CC000823299F1843499F1883099F1833499F121
:100CD000813299F1089584E4089581E4089582E4CD
:100CE000089583E4089585E4089586E4089587E4EB
:100CF000089588E408958EE4089589E408958AE4C7
:100D000008958BE408958CE408958DE408958FE4AC
:100D1000089580E5089581E5089582E5089583E5C5
:100D2000089584E5089585E5089586E5089587E5A5
:100D3000089588E5089589E508958AE508950E9453
:100D400072100E94360680937301809380018C3468
:100D500009F44BC08D3430F0803509F483C08135FF
:100D6000F1F108958134E9F78091A40188608093BE
:100D7000A40180912D0190912E01009729F00A97EE
:100D800090932E0180932D012091570120936601AD
:100D90003091580130936701809159018D5F8093A4
:100DA00068018C3340F03F5F309367016CE30E9431
:100DB0008C10909368013C3348F02F5F20936601BC
:100DC000832F6CE30E948C1090936701283148F2C6
:100DD000822F68E10E948C109093660108958091A3
:100DE000A4018F7B8093A40108958091A401886061
:100DF0008093A40180912D0190912E01843691055C
:100E000028F40A9690932E0180932D01209157018A
:100E10002093660130915801309367018091590108
:100E20008D5F809368018C3340F03F5F30936701A2
:100E30006CE30E948C10909368013C3348F02F5F64
:100E400020936601832F6CE30E948C1090936701BE
:100E5000283108F486CF822F68E10E948C1090938D
:100E6000660108958091A40180668093A40108958D
:100E70001F920F920FB60F9211248F939F9385B1FB
:100E8000843658F495B184E6891B83BD9F918F9178
:100E90000F900FBE0F901F90189581E083BD9F911A
:100EA0008F910F900FBE0F901F9018951F920F9269
:100EB0000FB60F9211242F938F939F9380915A0115
:100EC00090915B01019690935B0180935A01853F5D
:100ED000910591F121E0893E9207C1F08091720164
:100EE0008F5F80937201877049F480916E019091B9
:100EF0006F01019690936F0180936E019F918F9186
:100F00002F910F900FBE0F901F9018958091AA01FE
:100F10008F5F8093AA01809159018F5F809359015F
:100F200010925B0110925A018091A40187FD0AC0C2
:100F300081608093A401D2CF8091AA018F5F8093BA
:100F4000AA01CCCF9091A7019A3021F09AE090931A
:100F5000A701EECF9BE0FBCF1F920F920FB60F922F
:100F60000BB60F921124EF92FF920F931F932F93C2
:100F70003F934F935F936F937F938F939F93AF9321
:100F8000BF93CF93DF93EF93FF938091A40185FFED
:100F90000FC085B394E0892785BB20916E01309105
:100FA0006F01809170019091710128173907C8F481
:100FB000FF91EF91DF91CF91BF91AF919F918F9171
:100FC0007F916F915F914F913F912F911F910F9161
:100FD000FF90EF900F900BBE0F900FBE0F901F90E1
:100FE00018950E940D118C010E940D11EC010E94B8
:100FF0000D117C010E940D119C01C80167E070E099
:101000000E94AC10E82FCE0162E070E00E94AC10AC
:10101000F82FC70163E070E00E94AC10482F4A5FD0
:10102000C90160E170E00E94AC10282F8E2F8F5B09
:101030006F2F0E947200BCCF1F920F920FB60F92BB
:101040000BB60F921124FF920F931F932F933F9390
:101050004F935F936F937F938F939F93AF93BF93C0
:10106000CF93DF93EF93FF932091530127FD02C0AD
:1010700010926B01F0906D013F2D323009F49AC04F
:10108000333010F18F2D833009F4ABC0843009F474
:1010900068C0F394F0926D01FF91EF91DF91CF91D1
:1010A000BF91AF919F918F917F916F915F914F9180
:1010B0003F912F911F910F91FF900F900BBE0F90BA
:1010C0000FBE0F901F901895FF2011F58FEF8BBB6F
:1010D0001ABA80E788BBC0E0D0E001E010E08C2FB6
:1010E0000E941B04882361F0C8010C2E02C0880FE7
:1010F000991F0A94E2F72091530128272093530166
:101100002196C830D10559F788B38F7588BBC1CFF8
:10111000313009F0BECF80917E0190917F018138FE
:10112000910509F4B5C18238910508F0B8C000975F
:1011300009F012C127FD6EC1207A20935301822F3E
:1011400090E000902C0102C0959587950A94E2F7F3
:1011500080FFB1C08FE790E090937F0180937E0184
:1011600098CF8091A40186FF8FC090915701209164
:101170005C01921709F4A2C120916101921709F054
:1011800088CF2091580190916201291709F081CFF1
:101190002091590190916301291709F07ACF90911C
:1011A0006B0194FD76CF80628093A401906190934F
:1011B0006B016FCF90916C019B3009F420C180913D
:1011C00059018C3309F410C1809158018C3309F412
:1011D00003C180915701883109F4FBC032E0F32E3E
:1011E00058CF2091A40127FD03C080E18093A7017F
:1011F00080917E0190917F018138910509F419C198
:101200008238910508F05CC0009709F071C080E059
:10121000609155010E945D0580935401813009F46D
:101220009AC1823009F4E0C1809168015091670150
:10123000E091570120912D0130912E018C3340F027
:101240005F5F509367016CE30E948C10909368017C
:101250005C3308F049C140916601483138F0842F71
:1012600068E10E948C10492F909366014E1709F493
:1012700047C184E690E0821B930B90938700809394
:101280008600F0906D0105CF90916B0194FD01CF28
:101290008F7D8093A401906190936B01FACE843886
:1012A000910509F447CF8838910509F443CF823876
:1012B000910509F43FCF10927F0110927E01E9CE93
:1012C0008438910509F44DC08838910509F4E5C0CA
:1012D0008238910509F0DDCE90916B0197FDD9CE52
:1012E00080E182278093A401906890936B01D1CE16
:1012F0008F37910509F0CDCE80916B0185FD08C037
:1013000090E292279093A40180628F7E80936B017C
:10131000309157013093610120915801209362016F
:1013200080915901865F809363018C3340F06CE3B8
:101330000E948C10909363012F5F209362012C33E5
:1013400008F4A7CE822F6CE30E948C109093620168
:101350003F5F309361019DCE8F37910509F0ABCF90
:10136000E9CE81E0609155010E945D0580935401B2
:10137000813009F4EAC0823009F450C180E0609104
:1013800055010E945D0580935401813009F403C129
:10139000823009F419C180915D0190915C0198310E
:1013A00010F010925C018C3338F010925D01809146
:1013B0005C018F5F80935C0180916B0186FD61CF42
:1013C0009091A40190649093A401806480936B0138
:1013D00058CF1092570102CF1092580180915701B7
:1013E0008F5F80935701F7CE809158018F5F809374
:1013F00058019F5F90936C0110925901E7CE809144
:101400005901843109F0DDCE85E1809359011092B4
:101410006C01DACE20FD61C021FD90C022FDCDC05F
:1014200023FF37CE88E890E090937F0180937E0180
:1014300030CE81E0609155010E945D05809354019A
:10144000813009F4B4C0823009F4E2C080E06091D8
:1014500055010E945D0580935401813009F4A1C0BB
:10146000823009F4B9C080915801909157019831A8
:1014700010F0109257018C3308F403CF10925801EA
:10148000809157018F5F80935701F0906D0101CEDD
:1014900027FF52CE20FFC0CFC7CF90916B0196FDA2
:1014A000F8CD80E482278093A401906490936B012F
:1014B00086FDEFCD8F7D8093A401EBCD3091580157
:1014C00020915D01321709F057CE309159012091DA
:1014D0005E01321709F050CE62CE81E890E0909321
:1014E0007F0180937E01D5CD409166014F5F40938F
:1014F0006601852F6CE30E948C1090936701ADCE3E
:101500009091580180916701981709F0B2CE90919F
:10151000590180916801981709F0ABCE90916B0149
:1015200093FDA7CE8091A401877F8093A4018BE0D7
:101530008093A701986090936B019BCE82E890E026
:1015400090937F0180937E01A4CD80915C018F5F99
:1015500080935C0113CF20912D0130912E01243610
:10156000310530F4265F3F4F30932E0120932D013B
:101570008091A40188608093A401E0915701E093D9
:1015800066015091580150936701809159018D5F18
:101590008093680153CE80915D018F5F80935D01E0
:1015A000FCCE809158018F5F809358015ECF80916F
:1015B00057018F5F8093570149CF84E890E0909363
:1015C0007F0180937E0165CD80915D01882361F16B
:1015D000815080935D01E1CE80915801882331F1E3
:1015E00081508093580141CF8091A40188608093FD
:1015F000A40120912D0130912E012115310509F40E
:10160000BCCF2A50304030932E0120932D01B5CF0E
:101610008091570181508093570118CF80915C01D0
:10162000815080935C01AACE80E0B7CE80E01DCFD0
:10163000EF92FF920F931F93CF93DF9380916100FE
:101640008E7F809361001092620080E687B98FEEF2
:1016500086B987B7816087BF83B7856083BFA29A49
:1016600087B7806187BF8DE08EBD8FEF9FEF9BBDF9
:101670008ABDBF9A87B7806487BF89E785BD1FEFA2
:1016800013BD139A82EC80938B0089E180938A00CA
:1016900084E690E090938100809380008AE590E05A
:1016A000909387008093860087B3876087BB8DB156
:1016B00080658DB9709A0E9459100E94430E87E68A
:1016C00090E00E9462100E94940F8BE08093A7012B
:1016D00010927F0110927E01169A13B98A9A78941B
:1016E0002091A401822F53E0E52E05E047E0F42E7F
:1016F000C1E0D0E083FF07C080917E0190917F011F
:10170000009709F483C00E9480041ABB1BBB809120
:101710005201823009F470C0E82FF0E02091A4015A
:10172000EB55FE4FE081F0E0E85EFE4F90819BBB01
:1017300038B3982F9295907F3078932B98BB8F5F1A
:10174000602F0E948C109093520187B3816F87BBEA
:1017500026FF2BC08091AA016F2D0E948C10AE0134
:1017600002C0440F551F9A95E2F73091530130782B
:10177000342B3FB9779BFECF929A92981E981E9A6F
:10178000779BFECF8FB180935501822F20FD2BC018
:1017900086FD13C082FFAECF0E94230C2091A401CE
:1017A0002B7F2093A401822FA5CF809153018078B5
:1017B00090917E01892B8FB9DDCF24602093A40105
:1017C000E0915601F0E0E15DFE4F80810E94F30D53
:1017D000809156018D3021F18F5F809356012091C9
:1017E000A401822F87CF0E949F062091A4012E7F03
:1017F0002093A401822FCCCF2091A40127FD0DC0FE
:10180000E0925201E3E0F0E083E08ACF80912D0185
:1018100090912E010E943C0478CFE2E0F0E080CF6E
:101820001092560181E060E00E94950C2091A40185
:10183000822F60CFE2E6F0E0808188608083808143
:10184000877F808308951FB8779BFECF81E08FB993
:10185000779BFECF809162008860809362008091C8
:101860006200877F8093620080E991E00197F1F741
:1018700080E49FE10197F1F708951FB8779BFECFB1
:1018800080E88FB9779BFECF80916200886080935B
:10189000620080916200877F8093620080E991E01E
:1018A0000197F1F708951FB8779BFECF80EC8FB9B1
:1018B000779BFECF80916200886080936200809168
:1018C0006200877F8093620080E991E00197F1F7E1
:1018D00008951FB8779BFECF8FE08FB9779BFECF1F
:1018E0008091620088608093620080916200877FAF
:1018F0008093620080E991E00197F1F708951FB8A5
:10190000779BFECF8CE08FB9779BFECF80916200F2
:1019100088608093620080916200877F809362007C
:1019200080E991E00197F1F70895603120F481306A
:1019300019F08230B9F0089560581FB8779BFECF38
:101940006FB9779BFECF80916200886080936200C0
:1019500080916200877F8093620080E991E0019727
:10196000F1F708956054E9CF80E190E061E050E242
:1019700020E931E06FB9779BFECF5FB9779BFECF4F
:101980004091620048604093620040916200477F4E
:1019900040936200F9013197F1F7019759F70895E3
:1019A000843608F45BC090E09F5F84568436E0F78D
:1019B000992309F453C021E02FB9779BFECF905DA6
:1019C0009FB9779BFECF90916200986090936200E0
:1019D00090916200977F90936200E0E9F1E0319787
:1019E000F1F721E08A30B0F190E09F5F8A508A30B1
:1019F000E0F7992379F121E02FB9779BFECF905D35
:101A00009FB9779BFECF909162009860909362009F
:101A100090916200977F90936200E0E9F1E0319746
:101A2000F1F78823E9F0805D91E09FB9779BFECFC5
:101A30008FB9779BFECF80916200886080936200AF
:101A400080916200877F8093620080E991E0019736
:101A5000F1F70895213029F790E0CDCF20E0C2CFF3
:101A600080E3E2CF27E28031920708F4B4C020E09F
:101A70002F5F8051974237E280319307C8F72223C6
:101A800009F4A9C031E03FB9779BFECF205D2FB9A3
:101A9000779BFECF20916200286020936200209106
:101AA0006200277F20936200E0E9F1E03197F1F7CF
:101AB00031E043E0883E940708F489C020E02F5FBE
:101AC000885E934043E0883E9407C8F7222309F4D8
:101AD0007EC031E03FB9779BFECF205D2FB9779B69
:101AE000FECF209162002860209362002091620066
:101AF000277F20936200E0E9F1E03197F1F731E0D0
:101B00008436910508F45FC020E02F5F8456904032
:101B100084369105D0F7222309F455C031E03FB94E
:101B2000779BFECF205D2FB9779BFECF209162007F
:101B300028602093620020916200277F209362003A
:101B4000E0E9F1E03197F1F731E08A309105B8F141
:101B500020E02F5F0A978A309105D8F7222379F188
:101B600031E03FB9779BFECF205D2FB9779BFECF49
:101B70002091620028602093620020916200277FFC
:101B800020936200E0E9F1E03197F1F7009749F125
:101B9000805D91E09FB9779BFECF8FB9779BFECF99
:101BA0008091620088608093620080916200877FEC
:101BB0008093620080E991E00197F1F70895313058
:101BC00029F720E0CDCF313051F030E0BECF3130B9
:101BD00021F030E095CF30E06CCF20E07ACF20E0EC
:101BE0009DCF80E3D6CF91E09FB9779BFECF8FB991
:101BF000779BFECF80916200886080936200809125
:101C00006200877F8093620080E991E00197F1F79D
:101C1000089520E030E060E071E040E951E07FB9F4
:101C2000779BFECF280F391FF90120812FB9779BB1
:101C3000FECF209162002860209362002091620014
:101C4000277F20936200FA013197F1F76F5F262F0B
:101C500030E0FC0101900020E9F7E81BF90B329716
:101C6000E217F307E0F60895E1E6F0E0808188608E
:101C7000808388B388BB87B3876087BB80E58DB9D5
:101C800081E08EB908958091610088608093610041
:101C900080E69AEE0197F1F71FB8779BFECF88E3B5
:101CA0008FB9779BFECF809162008860809362003D
:101CB00080916200877F8093620080E991E00197C4
:101CC000F1F780E29EE40197F1F71FB8779BFECF12
:101CD00088E08FB9779BFECF809162008860809307
:101CE000620080916200877F8093620080E991E0CA
:101CF0000197F1F780E49FE10197F1F71FB8779B17
:101D0000FECF86E08FB9779BFECF8091620088601E
:101D10008093620080916200877F8093620080E9F7
:101D200091E00197F1F71FB8779BFECF80E48FB960
:101D3000779BFECF809162008860809362008091E3
:101D40006200877F8093620080E991E00197F1F75C
:101D500081E08FB9779BFECF8EE08FB9779BFECF66
:101D60008091620088608093620080916200877F2A
:101D70008093620080E991E00197F1F781E08FB9EB
:101D8000779BFECF8BE18FB9779BFECF809162006E
:101D900088608093620080916200877F80936200F8
:101DA00080E991E00197F1F781E08FB9779BFECF51
:101DB00081E18FB9779BFECF80916200886080932C
:101DC000620080916200877F8093620080E991E0E9
:101DD0000197F1F781E08FB9779BFECF81E18FB951
:101DE000779BFECF80916200886080936200809133
:101DF0006200877F8093620080E991E00197F1F7AC
:101E000081E08FB9779BFECF81E18FB9779BFECFC1
:101E10008091620088608093620080916200877F79
:101E20008093620080E991E00197F1F781E08FB93A
:101E3000779BFECF81E18FB9779BFECF80916200C7
:101E400088608093620080916200877F8093620047
:101E500080E991E00197F1F781E08FB9779BFECFA0
:101E600081E18FB9779BFECF80916200886080937B
:101E7000620080916200877F8093620080E991E038
:101E80000197F1F781E08FB9779BFECF8FE18FB992
:101E9000779BFECF80916200886080936200809182
:101EA0006200877F8093620080E991E00197F1F7FB
:101EB0001FB8779BFECF81E08FB9779BFECF8091D3
:101EC000620088608093620080916200877F8093C7
:101ED000620080E991E00197F1F780E29EE40197CA
:101EE000F1F71FB8779BFECF8CE08FB9779BFECFC1
:101EF0008091620088608093620080916200877F99
:101F00008093620080E991E00197F1F7089584E001
:101F100080937C0180E680937D0180E96CE771E02D
:101F200042E00E943710089510927C0180E96CE72E
:101F300071E041E00E943710089508951F920F92BA
:101F40000FB60F920BB60F9211242F933F938F93DE
:101F50009F93EF93FF93809171008832E1F1893272
:101F6000C8F0803409F44DC0813478F1803509F42B
:101F700060C08835B1F480917B01E091AC01F091B3
:101F8000AD01E80FF11D80917300808384E9809397
:101F900074000EC0803109F442C08831E1F088300D
:101FA000F1F1809171008093AB0184E08093740023
:101FB000FF91EF919F918F913F912F910F900BBEC9
:101FC0000F900FBE0F901F901895883351F785EA38
:101FD00080937400EDCF80917B019091AF018917C0
:101FE000A8F6E091AC01F091AD01E80FF11D9081F0
:101FF000909373008F5F80937B0185E880937400DA
:10200000D7CF20917B018091AF0130E090E0019724
:102010002817390724F585EC80937400C9CF809187
:10202000AE018093730010927B0185E88093740069
:10203000BFCF20917B01E091AC01F091AD01E20FA7
:10204000F11D8091730080832F5F20937B0180912D
:10205000AF0130E090E0019728173907E4F285E8F6
:1020600080937400A5CF8091740081700895909141
:10207000740090FDFCCF8E7F8093AE017093AD0114
:102080006093AC014093AF0185EA8093740008959A
:102090009091740090FDFCCF81608093AE017093AD
:1020A000AD016093AC014093AF0185EA8093740069
:1020B00008958FEF80937300109271008CE08093ED
:1020C000700008959093900089B988E18AB986E0FC
:1020D0008093950008955D9BFECF8CB908958BB1D8
:1020E0008078089580E090E005C001962EE3803866
:1020F000920721F05F9BF9CF8CB1089580E008959D
:10210000FC018081882339F031965D9BFECF8CB92C
:1021100081918823D1F70895991B79E004C0991F14
:10212000961708F0961B881F7A95C9F78095089531
:10213000AA1BBB1B51E107C0AA1FBB1FA617B707ED
:1021400010F0A61BB70B881F991F5A95A9F7809509
:102150009095BC01CD01089597FB092E07260AD062
:1021600077FD04D0E5DF06D000201AF47095619564
:102170007F4F0895F6F7909581959F4F0895AF9200
:10218000BF92CF92DF92EF92FF920F931F93CF9364
:10219000DF93EC01688179818A819B8161157105EA
:1021A0008105910521F464E279ED8BE597E02DE15D
:1021B00033EF41E050E00E942A1479018A0127EAB6
:1021C00031E440E050E00E940B145B016C01C80157
:1021D000B7012CEE34EF4FEF5FEF0E940B146A0D46
:1021E0007B1D8C1D9D1D97FF04C061507040804079
:1021F0009048688379838A839B837F77CB01DF91C3
:10220000CF911F910F91FF90EF90DF90CF90BF90F3
:10221000AF9008950E94BF1008958DE491E00E9450
:10222000BF100895A0E0B0E080934D0190934E015F
:10223000A0934F01B093500108950F931F93DF9324
:10224000CF93CDB7DEB72E970FB6F894DEBF0FBE93
:10225000CDBF0D891E898F89988D26E02C831A8326
:10226000098397FF02C080E090E801979E838D83E9
:102270009E01255E3F4FCE010196698D7A8DA901A1
:102280000E945B114D815E8157FD0AC02F81388508
:10229000421753070CF49A01020F131FF801108222
:1022A0002E960FB6F894DEBF0FBECDBFCF91DF9153
:1022B0001F910F9108952F923F924F925F926F92CC
:1022C0007F928F929F92AF92BF92CF92DF92EF92C6
:1022D000FF920F931F93DF93CF93CDB7DEB72C9769
:1022E0000FB6F894DEBF0FBECDBF6C011B018A0193
:1022F000FC0117821682838181FFD1C12E010894CF
:10230000411C511CF6019381F10193FD859193FFCE
:1023100081911F01882309F4BEC1853239F493FDF0
:10232000859193FF81911F01853229F490E0B601D8
:102330000E948113E7CFEE24FF2420E02032B0F486
:102340008B3269F08C3228F4803251F0833271F490
:102350000BC08D3239F0803349F421602CC02260EB
:10236000246029C0286027C0206125C027FD2CC01B
:10237000382F30533A3098F426FF08C08E2D880F3E
:10238000E82EEE0CEE0CE80EE30E15C08F2D880F34
:10239000F82EFF0CFF0CF80EF30E20620CC08E32EC
:1023A00021F426FD78C1206406C08C3611F4206823
:1023B00002C0883649F4F10193FD859193FF819124
:1023C0001F01882309F0BACF982F9554933018F045
:1023D0009052933028F40C5F1F4FFFE3F9830DC038
:1023E000833631F0833771F0833509F060C022C045
:1023F000F801808189830E5F1F4F420171E0A72E93
:10240000B12C16C062E0662E712C600E711EF801B0
:102410008080918026FF03C06E2D70E002C06FEFB8
:102420007FEFC4012C870E9476135C0183012C8509
:102430002F7717C052E0652E712C600E711EF801C7
:102440008080918026FF03C06E2D70E002C06FEF88
:102450007FEFC4012C870E946B135C012C852068E0
:10246000830123FD20C008C080E290E0B6012C87E4
:102470000E948113FA942C858F2D90E0A816B9063E
:1024800098F311C0F40127FD859127FF81914F0139
:1024900090E0B6012C870E9481132C85F110FA94EC
:1024A0000894A108B108A114B10461F7F1C0843601
:1024B00011F0893649F527FF08C0F8016081718164
:1024C000828193810C5F1F4F09C0F8016081718187
:1024D000882777FD8095982F0E5F1F4F4FE6B42E0B
:1024E000B22297FF09C090958095709561957F4FB6
:1024F0008F4F9F4FF0E8BF2AA2012AE030E00E94F0
:10250000AD13782E741845C0853731F43FEEB32EE5
:10251000B2222AE030E025C099EFB92EB2228F36E0
:10252000C1F0803720F4883509F0B5C00DC0803780
:1025300021F0883709F0AFC002C020E1B22AB4FE12
:102540000BC084E0B82A08C0B4FE09C0E6E0BE2A89
:1025500006C028E030E005C020E130E002C020E104
:1025600032E0B7FE08C0F8016081718182819381F9
:102570000C5F1F4F07C0F8016081718180E090E01F
:102580000E5F1F4FA2010E94AD13782E7418FFE753
:10259000BF22B6FE0BC02EEFB2227E1438F4B4FE7A
:1025A00007C0B2FC05C08FEEB82202C0A72C01C044
:1025B000AE2C8B2D90E0B4FE0DC0FE01E70DF11D99
:1025C0002081203319F4E9EEBE2209C0A394B2FEA3
:1025D00006C004C086789070009709F0A3948B2CF5
:1025E0009924B3FC14C0B0FE0FC0AF1428F4E72C3C
:1025F000EF0CEA18AF2C08C0E72C06C080E290E090
:10260000B6010E948113A394AF14C0F304C0AF14A9
:1026100010F4FA1801C0FF2484FE0FC080E390E09C
:10262000B6010E94811382FE1FC081FE03C088E5AF
:1026300090E010C088E790E00DC0C40186789070EB
:10264000009791F081FC02C080E201C08BE2B7FCF0
:102650008DE290E0B6010E94811306C080E390E015
:10266000B6010E948113EA947E14C0F37A94F201B9
:10267000E70DF11D808190E0B6010E948113772063
:10268000A9F706C080E290E0B6010E948113FA9497
:10269000FF20C1F737CEF6012681378102C02FEF28
:1026A0003FEFC9012C960FB6F894DEBF0FBECDBF29
:1026B000CF91DF911F910F91FF90EF90DF90CF901E
:1026C000BF90AF909F908F907F906F905F904F9052
:1026D0003F902F900895FC010590615070400110CB
:1026E000D8F7809590958E0F9F1F0895FC0161503B
:1026F000704001900110D8F7809590958E0F9F1F24
:1027000008950F931F93CF93DF938C01EB018B817F
:1027100081FF1BC082FF0DC02E813F818C819D8176
:102720002817390764F4E881F9810193F983E88374
:1027300006C0E885F985802F0995009731F48E81D0
:102740009F8101969F838E8302C00FEF1FEFC80108
:10275000DF91CF911F910F910895FA01AA27283098
:1027600051F1203181F1E8946F936E7F6E5F7F4F5E
:102770008F4F9F4FAF4FB1E03ED0B4E03CD0670FDA
:10278000781F891F9A1FA11D680F791F8A1F911D2D
:10279000A11D6A0F711D811D911DA11D20D009F47D
:1027A00068943F912AE0269F11243019305D3193BF
:1027B000DEF6CF010895462F4770405D4193B3E0A8
:1027C0000FD0C9F7F6CF462F4F70405D4A3318F04F
:1027D000495D31FD4052419302D0A9F7EACFB4E000
:1027E000A6959795879577956795BA95C9F70097B8
:1027F0006105710508959B01AC010A2E0694579559
:10280000479537952795BA95C9F7620F731F841FAF
:10281000951FA01D0895629FD001739FF001829FB4
:10282000E00DF11D649FE00DF11D929FF00D839F5F
:10283000F00D749FF00D659FF00D9927729FB00DFC
:10284000E11DF91F639FB00DE11DF91FBD01CF010F
:102850001124089597FB092E05260ED057FD04D0AC
:1028600014D00AD0001C38F450954095309521952D
:102870003F4F4F4F5F4F0895F6F7909580957095B5
:1028800061957F4F8F4F9F4F0895A1E21A2EAA1B8B
:10289000BB1BFD010DC0AA1FBB1FEE1FFF1FA21710
:1028A000B307E407F50720F0A21BB30BE40BF50B0D
:1028B000661F771F881F991F1A9469F76095709596
:1028C000809590959B01AC01BD01CF010895F894CE
:0228D000FFCF38
:1028D2002D25642E252D3264202563002025642EAB
:1028E200252D326420256300C0F9A4B0999282F8A4
:1028F2008098FFFC40790000000000010532004290
:10290200656172207761732068657265210001023A
:1029120000020000010100000200020100010000AB
:022922000000B3
:00000001FF
