S01B00006261725F67726170685F64656D6F5F736B656C2E7372656351
S11300000C9446000C9465000C9465000C946500F7
S11300100C9465000C9465000C9465000C946500C8
S11300200C9465000C9465000C9465000C946500B8
S11300300C9465000C9465000C9465000C946500A8
S11300400C9478000C9465000C9465000C94650085
S11300500C9465000C9465000C9465000C94650088
S11300600C9465000C9465000C9465000C94650078
S11300700C9465000C9465000C9465000C94650068
S11300800C9465000C9465000C94650011241FBE4B
S1130090CFEFD0E1DEBFCDBF11E0A0E0B1E0E4E6F8
S11300A0F1E000E00BBF02C007900D92A230B1074F
S11300B0D9F711E0A2E0B1E001C01D92A330B1076D
S11300C0E1F70E949F000C94B0000C94000087B3E9
S11300D0876087BB8DB180658DB9709A089580B7AC
S11300E0886080BF87B787BF83B7816083BF089567
S11300F01F920F920FB60F9211248F939F938091AA
S113010002018F5F809302018F7369F08091000177
S1130110873011F4109200019F918F910F900FBEC0
S11301200F901F901895809100018FB9779BFECF97
S1130130C09A98B318BA880F80930001E9CF80B7AA
S1130140886080BF87B787BF83B7816083BF87B369
S1130150876087BB8DB180658DB9709A7894FFCF25
S1070160F894FFCF3D
S1050164010094
S9030000FC
