:100000006AC084C083C082C081C080C07FC07EC0FF
:100010007DC07CC07BC07AC079C078C077C076C014
:1000200075C074C073C072C071C070C06FC06EC044
:10003000C0C06CC0FAC0D1C0D0C0CFC0CEC0CDC08F
:10004000CCC0CBC0F2C0C9C0C8C0C7C0C6C0C5C044
:10005000C4C0C3C0F4C0C1C0C0C0BFC0BEC0BDC06A
:10006000BCC0BBC0BAC0B9C0B8C0B7C0B6C0B5C0CC
:10007000B4C0B3C0E4C0B1C0B0C0AFC0AEC0ADC0CA
:10008000ACC0ABC0AAC0A9C0A8C0A7C0A6C0A5C02C
:10009000A4C0A3C0EAC0A1C0A0C09FC09EC09DC014
:1000A0009CC09BC0E6C099C098C097C096C095C040
:1000B00094C093C092C091C090C08FC08EC08DC0BC
:1000C0008CC08BC0E4C089C088C087C086C085C092
:1000D00084C083C09BC011241FBECFEFD2E0DEBF1F
:1000E000CDBF11E0A0E0B1E0ECE7F3E002C0059085
:1000F0000D92A030B107D9F711E0A0E0B1E001C046
:100100001D92AB31B107E1F70AD036C179CF84B186
:10011000876084B980E58CBD81E08DBD0895EF9244
:10012000FF920F931F93CF93DF93519A84B187600F
:1001300084B980E58CBD81E08DBDE9D083E390E09A
:10014000EFD02DD088EE93E028EC30E0F901319724
:10015000F1F70197D9F7789400EA1FE0F7D080E92A
:1001600064E171E042E0C2D0C8010197F1F780E09C
:10017000EC01E0901501FF24EC2AFD2A8F2DDBD045
:100180008E2DD9D0EBCF84E08093120180E680934E
:10019000130180E962E171E042E097D00895109286
:1001A000120180E962E171E041E08FD0089580E0C2
:1001B00008951F920F920FB60F9211242F933F9321
:1001C0008F939F93AF93BF93EF93FF938091B90069
:1001D00090E0089781359105A0F08091B900809357
:1001E000160184E08093BC00FF91EF91BF91AF9125
:1001F0009F918F913F912F910F900FBE0F901F9065
:100200001895865E9F4F8F939F930895809100016C
:10021000E0911701F0911801E80FF11D8091BB00EA
:10022000808384E98093BC00DFCF809119018093A3
:10023000BB001092000185E88093BC00D5CF80916F
:10024000000190911A01891760F7E0911701F09170
:100250001801E80FF11D90819093BB008F5F809390
:10026000000185E88093BC00BFCF85EA8093BC0085
:10027000BBCF2091000180911A0130E090E00197FE
:1002800028173907D4F485EC8093BC00ADCF2091BA
:100290000001E0911701F0911801E20FF11D80912A
:1002A000BB0080832F5F2093000180911A0130E012
:1002B00090E001972817390734F385E88093BC0054
:1002C00093CF8091BC00817008959091BC0090FD07
:1002D000FCCF8E7F809319017093180160931701F2
:1002E00040931A0185EA8093BC0008959091BC0068
:1002F00090FDFCCF81608093190170931801609389
:10030000170140931A0185EA8093BC0008958FEF8E
:100310008093BB001092B9008CE08093B8000895E0
:100320009093C5008093C40088E18093C10086E06B
:100330008093C20008959091C00095FFFCCF8093F8
:10034000C60008958091C000807808958091C00013
:1003500087FFFCCF8091C6000895FC01908199230E
:1003600051F031968091C00085FFFCCF9093C6007C
:0C03700091919923B9F70895F894FFCFFC
:00000001FF
