:100000006AC084C083C082C081C080C07FC07EC0FF
:100010007DC07CC07BC07AC079C078C077C076C014
:1000200075C074C073C072C071C070C06FC06EC044
:10003000DEC06CC018C1EFC0EEC0EDC0ECC0EBC0BC
:10004000EAC0E9C010C1E7C0E6C0E5C0E4C0E3C053
:10005000E2C0E1C012C1DFC0DEC0DDC0DCC0DBC079
:10006000DAC0D9C0D8C0D7C0D6C0D5C0D4C0D3C0DC
:10007000D2C0D1C002C1CFC0CEC0CDC0CCC0CBC0D9
:10008000CAC0C9C0C8C0C7C0C6C0C5C0C4C0C3C03C
:10009000C2C0C1C008C1BFC0BEC0BDC0BCC0BBC023
:1000A000BAC0B9C004C1B7C0B6C0B5C0B4C0B3C04F
:1000B000B2C0B1C0B0C0AFC0AEC0ADC0ACC0ABC0CC
:1000C000AAC0A9C002C1A7C0A6C0A5C0A4C0A3C0A1
:1000D000A2C0A1C0B9C011241FBECFEFD2E0DEBFC5
:1000E000CDBF11E0A0E0B1E0EEE3F4E002C0059086
:1000F0000D92A030B107D9F711E0A0E0B1E001C046
:100100001D92AB31B107E1F70AD097C179CF84B125
:10011000876084B980E58CBD81E08DBD0895AF9284
:10012000BF92CF92DF92EF92FF920F931F93CF93E4
:10013000DF9384B1876084B980E58CBD81E08DBD9B
:1001400004D183E390E00AD148D0789400EA1FE01C
:1001500035E0C32ED12C18D1E82E80E964E171E09E
:1001600042E0E2D0F8013197F1F7E0E0EF01609171
:10017000150170E06C2B7D2BFE2DF634A1F0CB0128
:1001800061E071E04AE050E029D181E0E82E81E0B1
:10019000F82EF70181917F01ECD0F6E0EF16F1E047
:1001A000FF06B9F7D8CFCB01880F991F880F991F89
:1001B000880F991F860F971F80569F4FB601FAD060
:1001C000DECF84E08093120180E68093130180E902
:1001D00062E171E042E097D008951092120180E947
:1001E00062E171E041E08FD0089580E008951F92B0
:1001F0000F920FB60F9211242F933F938F939F93DB
:10020000AF93BF93EF93FF938091B90090E008976D
:1002100081359105A0F08091B9008093160184E0AA
:100220008093BC00FF91EF91BF91AF919F918F910F
:100230003F912F910F900FBE0F901F901895865EE3
:100240009F4F8F939F93089580910001E091170134
:10025000F0911801E80FF11D8091BB00808384E9C3
:100260008093BC00DFCF809119018093BB00109276
:10027000000185E88093BC00D5CF8091000190916A
:100280001A01891760F7E0911701F0911801E80F42
:10029000F11D90819093BB008F5F8093000185E8F2
:1002A0008093BC00BFCF85EA8093BC00BBCF209178
:1002B000000180911A0130E090E00197281739077A
:1002C000D4F485EC8093BC00ADCF20910001E09187
:1002D0001701F0911801E20FF11D8091BB0080839E
:1002E0002F5F2093000180911A0130E090E0019788
:1002F0002817390734F385E88093BC0093CF8091A9
:10030000BC00817008959091BC0090FDFCCF8E7F61
:1003100080931901709318016093170140931A019B
:1003200085EA8093BC0008959091BC0090FDFCCFBD
:1003300081608093190170931801609317014093B5
:100340001A0185EA8093BC0008958FEF8093BB006B
:100350001092B9008CE08093B80008959093C50086
:100360008093C40088E98093C10086E08093C20036
:1003700008959091C00095FFFCCF8093C60008952A
:100380008091C000807808958091C00087FFFCCFE5
:100390008091C6000895FC019081992351F0319617
:1003A0008091C00085FFFCCF9093C6009191992366
:1003B000B9F70895AA1BBB1B51E107C0AA1FBB1FB9
:1003C000A617B70710F0A61BB70B881F991F5A95E1
:1003D000A9F780959095BC01CD010895FB019F017F
:1003E000E8944230BCF04532ACF44A3029F497FB33
:1003F0001EF4909581959F4F642F7727DBDF805DFA
:100400008A330CF0895D8193CB010097A9F716F42C
:100410005DE251931082C90100C0DC01FC01672F2D
:1004200071917723E1F7329704C07C916D937083CB
:0E0430006291AE17BF07C8F30895F894FFCF8E
:00000001FF
