:100000000C9446000C9465000C9465000C946500FB
:100010000C9465000C9465000C9465000C946500CC
:100020000C9465000C9465000C9465000C946500BC
:100030000C9456060C9465000C9465000C946500B5
:100040000C9404050C9465000C9465000C946500F8
:100050000C9465000C9465000C9465000C9465008C
:100060000C9465000C9465000C9465000C9465007C
:100070000C9465000C9465000C9465000C9465006C
:100080000C9465000C9465000C94650011241FBE4F
:10009000CFEFD0E1DEBFCDBF11E0A0E0B1E0EAE8F4
:1000A000F0E100E00BBF02C007900D92AA32B10749
:1000B000D9F711E0AAE2B1E001C01D92A334B10763
:1000C000E1F70E94CD060C9443080C9400001092B6
:1000D00031011092300110923301109232011092CE
:1000E00034010895109231011092300130E03093C4
:1000F000330120933201443009F4D0C0453078F008
:10010000463009F487C0463008F43FC0473009F450
:100110006AC0483009F450C01BBC1ABC0895413075
:1001200009F4A6C04130B0F4843409F428C28534FF
:100130000CF41FC1863409F470C186340CF465C117
:10014000873461F7662309F48EC28DE195E19BBD8A
:100150008ABD0895423009F474C04330E9F684340E
:1001600009F4EDC185340CF426C1863409F45AC172
:1001700086340CF442C1873489F6662309F409C336
:1001800082EA92E09BBD8ABD0895843409F471C16E
:1001900085340CF421C1863409F435C286340CF45C
:1001A000FEC1873409F0BACF662309F461C287EA39
:1001B00090E09BBD8ABD0895843409F445C185341F
:1001C0000CF4E8C0863409F43AC186340CF42FC12B
:1001D000873409F0A3CF662309F417C380E190E0C8
:1001E0009BBD8ABD0895843409F46AC185340CF43A
:1001F000AFC0863409F426C286340CF4C8C18734F3
:1002000009F08CCF662309F483C289E290E09BBD9C
:100210008ABD0895843409F4A2C185340CF487C0E2
:10022000863409F4F5C186340CF4E0C1873409F052
:1002300075CF662309F47BC283E590E09BBD8ABD40
:100240000895843409F483C185340CF45FC0863486
:1002500009F431C186340CF426C1873409F05ECF2D
:10026000662309F428C286E495E09BBD8ABD089503
:10027000843409F45CC18534C4F1863409F4A4C122
:1002800086340CF499C1873409F048CF662309F409
:10029000FEC18DE89AE09BBD8ABD0895843409F4BF
:1002A00066C185348CF0863409F434C186340CF48C
:1002B00029C1873409F032CF662309F424C280E5CE
:1002C00091E09BBD8ABD0895823409F4ABC18334AB
:1002D0000CF0A3C1813409F021CF662309F431C2A7
:1002E0008BE291E09BBD8ABD0895823409F4A2C1DE
:1002F00083340CF05CC1813409F010CF662309F41B
:100300002AC287E699E09BBD8ABD0895823409F42C
:100310009EC183340CF072C1813409F0FFCE662394
:1003200009F4E7C182EB94E09BBD8ABD0895823455
:1003300009F4DBC083340CF0B1C0813409F0EECE97
:10034000662309F4BDC18AE490E09BBD8ABD08958F
:10035000823409F4C2C083340CF0BAC0813409F08D
:10036000DDCE662309F41FC284E290E09BBD8ABD06
:100370000895823409F4D3C083340CF0BEC08134B4
:1003800009F0CCCE662309F409C28EEC92E19BBD44
:100390008ABD0895823409F464C083340CF05CC0D3
:1003A000813409F0BBCE662309F411C28BE090E0E2
:1003B0009BBD8ABD0895823409F410C183340CF0CA
:1003C00008C1813409F0AACE662309F46AC188E520
:1003D00092E09BBD8ABD0895823409F457C08334EE
:1003E0000CF04FC0813409F099CE662309F4F9C1AD
:1003F00085E990E09BBD8ABD0895662309F4FBC1A1
:1004000082E293E09BBD8ABD0895662309F4F8C19A
:1004100089E199E19BBD8ABD08958DE596E19BBD7B
:100420008ABD08958AEC92E09BBD8ABD089566233B
:1004300009F4F0C188E190E09BBD8ABD089582E196
:1004400090E09BBD8ABD0895662309F4C5C18BE188
:1004500090E09BBD8ABD08958CE190E09BBD8ABD74
:100460000895662309F4C2C187E090E09BBD8ABD70
:100470000895662309F4A1C180EE90E09BBD8ABD7A
:1004800008958DEE90E09BBD8ABD0895662309F422
:100490001CC185E890E09BBD8ABD089586E790E089
:1004A0009BBD8ABD0895662309F48CC186E496E05D
:1004B0009BBD8ABD089586E995E09BBD8ABD0895E0
:1004C000662309F475C187E390E09BBD8ABD08955A
:1004D0008AE390E09BBD8ABD0895662309F4FAC0C3
:1004E00080E290E09BBD8ABD0895662309F44CC16B
:1004F00082E490E09BBD8ABD08958CED9DE19BBD9B
:100500008ABD0895662309F43AC180E991E09BBD54
:100510008ABD089584E691E09BBD8ABD0895662357
:1005200009F41EC180EC90E19BBD8ABD089566234D
:1005300009F4B2C086E19EE09BBD8ABD08956623A2
:1005400009F4DCC084E893E09BBD8ABD089566236E
:1005500009F4F2C08AE097E09BBD8ABD0895662346
:1005600009F4F4C08FE690E09BBD8ABD0895662330
:1005700009F49CC081EC91E09BBD8ABD089566237F
:1005800009F4CBC080E39CE19BBD8ABD089566233E
:1005900009F473C081E390E09BBD8ABD0895662392
:1005A00009F4E3C087EC90E09BBD8ABD08958DEE11
:1005B0009EE09BBD8ABD0895662309F44FC08DE877
:1005C0009CE09BBD8ABD08958EE29BE09BBD8ABDE9
:1005D00008958AEB93E09BBD8ABD0895662309F4D4
:1005E0007EC087E192E09BBD8ABD0895662309F431
:1005F0007BC083E690E09BBD8ABD089586E797E0C7
:100600009BBD8ABD089581EB90E09BBD8ABD089596
:1006100088E590E09BBD8ABD08958CED91E09BBD7F
:100620008ABD0895662309F4A5C08BE091E09BBDC7
:100630008ABD0895662309F475C080E698E09BBDE5
:100640008ABD08958BE290E09BBD8ABD0895662324
:10065000C9F08FE294E09BBD8ABD089588ED9BE0D0
:100660009BBD8ABD08958DEE93E19BBD8ABD089523
:100670008EE990E09BBD8ABD08958EE290E09BBD1F
:100680008ABD089583EF93E09BBD8ABD089586EFF0
:1006900099E09BBD8ABD08958CE49DE09BBD8ABD19
:1006A000089587E392E09BBD8ABD089588EA91E0B2
:1006B0009BBD8ABD08958AEF94E09BBD8ABD0895D5
:1006C00086E490E09BBD8ABD08958DE790E09BBDD8
:1006D0008ABD08958EE190E09BBD8ABD089589EFA3
:1006E00091E09BBD8ABD08958DE590E09BBD8ABDDC
:1006F00008958FE694E09BBD8ABD089582E593E05E
:100700009BBD8ABD08958DE391E09BBD8ABD089590
:1007100086E290E09BBD8ABD08958AE99AE19BBD7F
:100720008ABD089587EE97E09BBD8ABD08958EE44B
:1007300090E09BBD8ABD089585EA96E09BBD8ABD89
:1007400008958BE191E09BBD8ABD089589E690E014
:100750009BBD8ABD08958FED98E09BBD8ABD08952D
:1007600080ED9FE09BBD8ABD08958CEB90E09BBD22
:100770008ABD08958CEF90E09BBD8ABD08958AE7FD
:1007800091E09BBD8ABD08958EE390E09BBD8ABD3C
:1007900008958CE792E09BBD8ABD089580EC91E1BD
:1007A0009BBD8ABD089582E290E09BBD8ABD0895FD
:1007B00084E390E09BBD8ABD089583ED90E09BBDEE
:1007C0008ABD08958BEE95E09BBD8ABD089589E0B2
:1007D00090E09BBD8ABD089589E190E09BBD8ABDF4
:1007E00008958DE890E09BBD8ABD089585E090E076
:1007F0009BBD8ABD089585EF92E09BBD8ABD08959B
:1008000082EB97E19BBD8ABD08958DE090E09BBD92
:100810008ABD089585E190E09BBD8ABD0895E1E61B
:10082000F0E080818E7F80831092620080E687B93D
:1008300089EE86B9089549B320913A0130913B0180
:10084000220F331F306E50E002C0559547958A95B0
:10085000E2F781E090E040FF02C080E090E0282BCA
:10086000392B30933B0120933A0181E090EF203007
:10087000390709F080E008958A30910508F447C0EF
:1008800040E02AE030E0E42FF0E0E25CFE4FB90106
:100890000E9462078083CB014F5F6A30710598F731
:1008A000009709F1E42FF0E0E25CFE4F80834F5F98
:1008B000453048F48AE0E42FF0E0E25CFE4F8083AC
:1008C0004F5F4530C1F79091410180914001909375
:1008D0004201809341018FEF8093400188B380787B
:1008E000806588BB089580911401882349F482E0D3
:1008F00080933F0183E080933E0180E091E0E7CF69
:1009000010923F0110923E0180E090E0E0CF40E085
:10091000C7CF87B3876087BB8DB180658DB9709A6B
:10092000089587B7816087BF83B7856083BF0895C7
:10093000A29A87B7806187BF8DE08EBD8FEF9FEF52
:100940009BBD8ABD0895139A82EC80938B0089E148
:1009500080938A0084E690E09093810080938000E9
:100960009093870080938600089590E0AC01440F37
:10097000551F23E030E0042E02C0220F331F0A94DB
:10098000E2F770E02623372302C0359527954A9574
:10099000E2F7DC01AA5CBE4FEC91EE0FEE0FE22B0A
:1009A000F0E0EB5EFE4F30813130F9F0323029F06B
:1009B000233059F080E02C930895FC01E85CFE4F51
:1009C0003081315030832330A9F7FC01E85CFE4FC1
:1009D0008081982F9250923678F0813990F0109261
:1009E000140182E010822C930895FC01E85CFE4F14
:1009F00030813F5F3083DCCF1092140181E01082A0
:100A0000F2CF80E01082EFCF1F920F920FB60F92BD
:100A10000BB60F9211240F931F932F933F934F9375
:100A20005F936F937F938F939F93AF93BF93CF9376
:100A3000DF93EF93FF93809135018F5F80933501B2
:100A4000877049F480913001909131010196909323
:100A500031018093300180918600909187001ABA0D
:100A60008FEF8BBB80E788BBC0E0D0E001E010E0F7
:100A70008C2F0E941B04882361F0C8010C2E02C039
:100A8000880F991F0A94E2F720912D0128272093BF
:100A90002D012196C830D10559F788B38F7588BBD1
:100AA00080E060912F010E94B50480932E01813077
:100AB00009F476C0823009F480C081E060912F0192
:100AC0000E94B50480932E01813009F445C0823024
:100AD00009F480C080913C0190913D0182309105E4
:100AE00009F44EC08330910508F58130910509F471
:100AF0008EC081E090E090933D0180933C01FF9196
:100B0000EF91DF91CF91BF91AF919F918F917F91A5
:100B10006F915F914F913F912F911F910F910F9086
:100B20000BBE0F900FBE0F901F901895843091054B
:100B300009F45DC08F3F9105E1F620912D0121FF61
:100B400076C020FD78C084E090E090933D018093D2
:100B50003C0110921301D3CF2091130180912A01FF
:100B600090912B01820F911D90932B0180932A016C
:100B700080913C0190913D018230910509F0B2CF06
:100B800020912D0121FF5CC020FF82C08FEF90E0FB
:100B900090933D0180933C0182E080931301AFCF9D
:100BA0002091130180912A0190912B01820F911DB8
:100BB00090932B0180932A0180CF20911301809183
:100BC0002A0190912B01821B910990932B01809314
:100BD0002A0173CF2091130180912A0190912B015A
:100BE000821B910990932B0180932A0173CF20914E
:100BF0002D0121FF2CC020FF2EC08FEF90E090939D
:100C00003D0180933C0184E08093130178CF2091D3
:100C10002D0121FF25C020FF34C08FEF90E090937D
:100C20003D0180933C0181E08093130168CF20FF58
:100C300090CF82E090E090933D0180933C0189CF7A
:100C400020FF17C090933D0180933C01A5CF20FD6C
:100C500026C081E090E090933D0180933C01D3CF8A
:100C600020FF0AC082E090E090933D0180933C0118
:100C7000DACF81E090E0E6CF90933D0180933C0194
:100C8000D2CF84E090E090933D0180933C01CBCFA4
:100C900084E090E090933D0180933C017DCF82E021
:100CA00090E090933D0180933C01ADCF1F920F9255
:100CB0000FB60F920BB60F921124EF92FF920F9383
:100CC0001F932F933F934F935F936F937F938F93D4
:100CD0009F93AF93BF93CF93DF93EF93FF9385B32E
:100CE00094E0892785BB20913001309131018091BA
:100CF00032019091330128173907B0F10E94D707CC
:100D00008C010E94D707EC010E94D7077C010E944A
:100D1000D7079C01C80167E070E00E947607E82FC2
:100D2000CE0162E070E00E947607F82FC70163E011
:100D300070E00E947607482F4A5FC90168E070E0C2
:100D40000E947607282F8E2F8F5B6F2F0E947200D4
:100D5000809134018F5F80933401809134016CE085
:100D60000E94560790933401FF91EF91DF91CF914C
:100D7000BF91AF919F918F917F916F915F914F91B3
:100D80003F912F911F910F91FF90EF900F900BBE0D
:100D90000F900FBE0F901F901895EF92FF920F9338
:100DA0001F93CF93DF9387B7816087BF83B7856039
:100DB00083BFA29A87B7806187BF8DE08EBD8FEF1A
:100DC0009FEF9BBD8ABD139A82EC80938B0089E1D3
:100DD00080938A0084E690E0909381008093800065
:100DE000909387008093860087B3876087BB8DB11F
:100DF00080658DB9709A789481E090E090933D0180
:100E000080933C01CFEFD3E00FEF65E0E62E54E096
:100E1000F52E10E480912A0190912B01BE010E94D1
:100E2000620780932A0190932B010E943C040ABB25
:100E30000BBB80912C01282F30E0F901E25CFE4FC2
:100E4000E081F0E0E050FF4F90819BBB98B322958A
:100E50003295307F3227207F32279078922B98BBB3
:100E60008F5F6E2D0E94560790932C0187B3816F80
:100E700087BB80918000909181008FB9809186001E
:100E80009091870090932B0180932A01779BFECF4E
:100E9000F1BA12BA12B913B9929A929813B813B957
:100EA000779BFECF8FB180932F01B4CF991B79E050
:100EB00004C0991F961708F0961B881F7A95C9F7EA
:100EC00080950895AA1BBB1B51E107C0AA1FBB1F39
:100ED000A617B70710F0A61BB70B881F991F5A95C6
:100EE000A9F780959095BC01CD01089597FB092E37
:100EF00007260AD077FD04D0E5DF06D000201AF4DB
:100F0000709561957F4F0895F6F7909581959F4F65
:100F10000895AF92BF92CF92DF92EF92FF920F931C
:100F20001F93CF93DF93EC01688179818A819B8144
:100F3000611571058105910521F464E279ED8BE578
:100F400097E02DE133EF41E050E00E94060879017F
:100F50008A0127EA31E440E050E00E94E7075B01A4
:100F60006C01C801B7012CEE34EF4FEF5FEF0E9428
:100F7000E7076A0D7B1D8C1D9D1D97FF04C0615006
:100F8000704080409048688379838A839B837F7711
:100F9000CB01DF91CF911F910F91FF90EF90DF90E8
:100FA000CF90BF90AF9008950E948907089585E281
:100FB00091E00E9489070895A0E0B0E080932501A8
:100FC00090932601A0932701B09328010895629F72
:100FD000D001739FF001829FE00DF11D649FE00D31
:100FE000F11D929FF00D839FF00D749FF00D659F92
:100FF000F00D9927729FB00DE11DF91F639FB00D91
:10100000E11DF91FBD01CF011124089597FB092EA1
:1010100005260ED057FD04D014D00AD0001C38F499
:1010200050954095309521953F4F4F4F5F4F089514
:10103000F6F790958095709561957F4F8F4F9F4FF4
:101040000895A1E21A2EAA1BBB1BFD010DC0AA1F09
:10105000BB1FEE1FFF1FA217B307E407F50720F021
:10106000A21BB30BE40BF50B661F771F881F991F9C
:101070001A9469F760957095809590959B01AC01E5
:0A108000BD01CF010895F894FFCFE1
:10108A00C0F9A4B0999282F88098FF7F000000000E
:10109A00000000010100010200020000010100003D
:0A10AA000200020100010000000036
:00000001FF
