:100000000C9446000C9465000C9465000C946500FB
:100010000C9465000C9465000C9465000C946500CC
:100020000C9465000C9465000C9465000C946500BC
:100030000C9465000C9465000C9465000C946500AC
:100040000C9465000C9465000C9465000C9465009C
:100050000C9465000C9465000C9465000C9465008C
:100060000C9465000C9465000C9465000C9465007C
:100070000C9465000C9465000C9465000C9465006C
:100080000C9465000C9463020C94650011241FBE4F
:10009000CFEFD0E1DEBFCDBF11E0A0E0B1E0E0E7FF
:1000A000FCE000E00BBF02C007900D92AC30B1073E
:1000B000D9F711E0ACE0B1E001C01D92A733B10760
:1000C000E1F70E946F000C9436060C94000087B391
:1000D000876087BB80E58DB981E08EB908956F9206
:1000E0007F928F929F92AF92BF92CF92DF92EF92C8
:1000F000FF920F931F93CF93DF9387B3876087BBE4
:1001000080E58DB981E08EB90E94BF010E941E0377
:1001100083E390E00E9427030E94590278940E9492
:100120000F010DE011E0A0E0CA2EA1E0DA2EC0E937
:10013000D1E0F0E4AF2EFFE1BF2EE0E18E2E912C56
:1001400073E4672E712C88EE93E0FE013197F1F78E
:100150000197D9F70E940F0180E960E371E042E066
:100160000E940D03C5010197F1F7F0903001EE24D4
:100170008091310190E08E299F292DB73EB72C50F8
:1001800030400FB6F8943EBF0FBE2DBFEDB7FEB79F
:100190003196ADB7BEB712961C930E93119793820A
:1001A0008282D582C4829C01220F232F221F330B0F
:1001B0003195378326839C0120763070C901880FE2
:1001C000991F820F931F880F991F880F991F880FFF
:1001D000991F820F931F96958795929582958F70A0
:1001E00089279F70892791878087738662860E94FE
:1001F00048032DB73EB7245F3F4F0FB6F8943EBF7C
:100200000FBE2DBFC8010E9491019DCFE2E6F0E034
:100210008081886080838081877F808308951FB874
:10022000779BFECF81E08FB9779BFECF80916200F4
:1002300088608093620080916200877F8093620073
:1002400080E49FE10197F1F708951FB8779BFECFF7
:1002500082E08FB9779BFECF8091620088608093A7
:10026000620080916200877F8093620008951FB8CA
:10027000779BFECF80EC8FB9779BFECF8091620099
:1002800088608093620080916200877F8093620023
:10029000089580E190E061E050E220EA3FE06FB92C
:1002A000779BFECF5FB9779BFECF4091620048609D
:1002B0004093620040916200477F40936200F901E1
:1002C0003197F1F7019759F7089591E09FB9779B1E
:1002D000FECF8FB9779BFECF8091620088608093BC
:1002E000620080916200877F8093620080EA9FE0D5
:1002F0000197F1F708951FB8779BFECF8CE08FB977
:10030000779BFECF8091620088608093620080912D
:100310006200877F8093620080EA9FE00197F1F797
:1003200008951F9340E050E020E030E011E060E9E4
:1003300071E01FB9779BFECF480F591FFA0140812A
:100340004FB9779BFECF40916200486040936200B6
:1003500040916200477F40936200FB013197F1F7C3
:100360002F5F3F4FA901FC0101900020E9F7E81B36
:10037000F90B3297E217F307E0F61F910895809189
:10038000610088608093610080E69AEE0197F1F742
:1003900083E090E050E320E63DE61FB8779BFECF78
:1003A0005FB9779BFECF4091620048604093620046
:1003B00040916200477F40936200F9013197F1F765
:1003C000019759F71FB8779BFECF88E38FB9779BCA
:1003D000FECF80916200886080936200809162000D
:1003E000877F8093620080E29EE40197F1F71FB857
:1003F000779BFECF88E08FB9779BFECF809162001C
:1004000088608093620080916200877F80936200A1
:1004100080E29EE40197F1F71FB8779BFECF81E061
:100420008FB9779BFECF80916200886080936200D5
:1004300080916200877F8093620080E29EE4019752
:10044000F1F71FB8779BFECF86E08FB9779BFECF81
:100450008091620088608093620080916200877F53
:100460008093620080E29EE40197F1F71FB8779BCA
:10047000FECF8EE08FB9779BFECF809162008860BF
:100480008093620080916200877F8093620080E2A7
:100490009EE40197F1F7089584E080932E0180E6B1
:1004A00080932F0180E96EE271E042E00E94FC023D
:1004B000089510922E0180E96EE271E041E00E9401
:1004C000FC02089508951F920F920FB60F920BB67B
:1004D0000F9211242F933F938F939F93EF93FF934A
:1004E000809171008832E1F18932C8F0803409F4DA
:1004F0004DC0813478F1803509F460C08835B1F49D
:1005000080910C01E0913301F0913401E80FF11D6D
:1005100080917300808384E9809374000EC08031E1
:1005200009F442C08831E1F08830F1F18091710026
:100530008093320184E080937400FF91EF919F914A
:100540008F913F912F910F900BBE0F900FBE0F9088
:100550001F901895883351F785EA80937400EDCF8A
:1005600080910C01909136018917A8F6E091330132
:10057000F0913401E80FF11D9081909373008F5F2B
:1005800080930C0185E880937400D7CF20910C01F3
:100590008091360130E090E001972817390724F563
:1005A00085EC80937400C9CF8091350180937300EE
:1005B00010920C0185E880937400BFCF20910C014C
:1005C000E0913301F0913401E20FF11D809173004D
:1005D00080832F5F20930C018091360130E090E002
:1005E000019728173907E4F285E880937400A5CFB6
:1005F00080917400817008959091740090FDFCCFFB
:100600008E7F809335017093340160933301409362
:10061000360185EA8093740008959091740090FDEE
:10062000FCCF816080933501709334016093330176
:100630004093360185EA8093740008958FEF80938C
:100640007300109271008CE0809370000895909375
:10065000900089B988E98AB986E080939500089569
:100660005D9BFECF8CB908958BB1807808955F9B18
:10067000FECF80919C000895FC018081882339F091
:1006800031965D9BFECF8CB981918823D1F7089577
:100690000F931F93DF93CF93CDB7DEB72E970FB68F
:1006A000F894DEBF0FBECDBF0D891E898F89988D4E
:1006B00026E02C831A83098397FF02C080E090E82C
:1006C00001979E838D839E01255E3F4FCE0101964B
:1006D000698D7A8DA9010E9486034D815E8157FD47
:1006E0000AC02F813885421753070CF49A01020F74
:1006F000131FF80110822E960FB6F894DEBF0FBEBE
:10070000CDBFCF91DF911F910F9108952F923F920E
:100710004F925F926F927F928F929F92AF92BF9211
:10072000CF92DF92EF92FF920F931F93DF93CF93BD
:10073000CDB7DEB72C970FB6F894DEBF0FBECDBF96
:100740006C011B018A01FC0117821682838181FFE3
:10075000D1C12E010894411C511CF6019381F10175
:1007600093FD859193FF81911F01882309F4BEC1F8
:10077000853239F493FD859193FF81911F01853274
:1007800029F490E0B6010E94AC05E7CFEE24FF24E7
:1007900020E02032B0F48B3269F08C3228F48032C1
:1007A00051F0833271F40BC08D3239F0803349F44B
:1007B00021602CC02260246029C0286027C02061ED
:1007C00025C027FD2CC0382F30533A3098F426FF2F
:1007D00008C08E2D880FE82EEE0CEE0CE80EE30E0E
:1007E00015C08F2D880FF82EFF0CFF0CF80EF30E9E
:1007F00020620CC08E3221F426FD78C1206406C030
:100800008C3611F4206802C0883649F4F10193FD5A
:10081000859193FF81911F01882309F0BACF982F0A
:100820009554933018F09052933028F40C5F1F4F7A
:10083000FFE3F9830DC0833631F0833771F08335E0
:1008400009F060C022C0F801808189830E5F1F4FCC
:10085000420171E0A72EB12C16C062E0662E712C09
:10086000600E711EF8018080918026FF03C06E2DFE
:1008700070E002C06FEF7FEFC4012C870E94A105DA
:100880005C0183012C852F7717C052E0652E712CF7
:10089000600E711EF8018080918026FF03C06E2DCE
:1008A00070E002C06FEF7FEFC4012C870E949605B5
:1008B0005C012C852068830123FD20C008C080E2F4
:1008C00090E0B6012C870E94AC05FA942C858F2D00
:1008D00090E0A816B90698F311C0F40127FD8591A0
:1008E00027FF81914F0190E0B6012C870E94AC0553
:1008F0002C85F110FA940894A108B108A114B10450
:1009000061F7F1C0843611F0893649F527FF08C038
:10091000F80160817181828193810C5F1F4F09C052
:10092000F80160817181882777FD8095982F0E5F8F
:100930001F4F4FE6B42EB22297FF09C090958095C5
:10094000709561957F4F8F4F9F4FF0E8BF2AA201AE
:100950002AE030E00E94D805782E741845C085370B
:1009600031F43FEEB32EB2222AE030E025C099EFF9
:10097000B92EB2228F36C1F0803720F4883509F0C5
:10098000B5C00DC0803721F0883709F0AFC002C074
:1009900020E1B22AB4FE0BC084E0B82A08C0B4FE3D
:1009A00009C0E6E0BE2A06C028E030E005C020E12C
:1009B00030E002C020E132E0B7FE08C0F8016081FB
:1009C0007181828193810C5F1F4F07C0F8016081A4
:1009D000718180E090E00E5F1F4FA2010E94D80558
:1009E000782E7418FFE7BF22B6FE0BC02EEFB2229E
:1009F0007E1438F4B4FE07C0B2FC05C08FEEB822F6
:100A000002C0A72C01C0AE2C8B2D90E0B4FE0DC00F
:100A1000FE01E70DF11D2081203319F4E9EEBE221D
:100A200009C0A394B2FE06C004C0867890700097F7
:100A300009F0A3948B2C9924B3FC14C0B0FE0FC012
:100A4000AF1428F4E72CEF0CEA18AF2C08C0E72C01
:100A500006C080E290E0B6010E94AC05A394AF14FA
:100A6000C0F304C0AF1410F4FA1801C0FF2484FED0
:100A70000FC080E390E0B6010E94AC0582FE1FC06B
:100A800081FE03C088E590E010C088E790E00DC0CB
:100A9000C40186789070009791F081FC02C080E2DA
:100AA00001C08BE2B7FC8DE290E0B6010E94AC057C
:100AB00006C080E390E0B6010E94AC05EA947E1483
:100AC000C0F37A94F201E70DF11D808190E0B60148
:100AD0000E94AC057720A9F706C080E290E0B6013D
:100AE0000E94AC05FA94FF20C1F737CEF6012681AB
:100AF000378102C02FEF3FEFC9012C960FB6F89453
:100B0000DEBF0FBECDBFCF91DF911F910F91FF9040
:100B1000EF90DF90CF90BF90AF909F908F907F909D
:100B20006F905F904F903F902F900895FC0105903B
:100B3000615070400110D8F7809590958E0F9F1FDF
:100B40000895FC016150704001900110D8F7809524
:100B500090958E0F9F1F08950F931F93CF93DF9350
:100B60008C01EB018B8181FF1BC082FF0DC02E81A8
:100B70003F818C819D812817390764F4E881F981D0
:100B80000193F983E88306C0E885F985802F0995EC
:100B9000009731F48E819F8101969F838E8302C0DE
:100BA0000FEF1FEFC801DF91CF911F910F910895B3
:100BB000FA01AA27283051F1203181F1E8946F938E
:100BC0006E7F6E5F7F4F8F4F9F4FAF4FB1E03ED034
:100BD000B4E03CD0670F781F891F9A1FA11D680FD2
:100BE000791F8A1F911DA11D6A0F711D811D911D05
:100BF000A11D20D009F468943F912AE0269F11247A
:100C00003019305D3193DEF6CF010895462F4770DD
:100C1000405D4193B3E00FD0C9F7F6CF462F4F7038
:100C2000405D4A3318F0495D31FD4052419302D096
:100C3000A9F7EACFB4E0A69597958795779567953C
:100C4000BA95C9F700976105710508959B01AC013C
:100C50000A2E06945795479537952795BA95C9F763
:100C6000620F731F841F951FA01D0895F894FFCF76
:0C0C700025642E252D3264202563000031
:00000001FF
