:100000000C9446000C9465000C9465000C946500FB
:100010000C9465000C9465000C9465000C946500CC
:100020000C9465000C9465000C9465000C946500BC
:100030000C9465000C9465000C9465000C946500AC
:100040000C9465000C9465000C9465000C9465009C
:100050000C9465000C9465000C9465000C9465008C
:100060000C9465000C9465000C9465000C9465007C
:100070000C9465000C9465000C9465000C9465006C
:100080000C9465000C94FD010C94650011241FBEB6
:10009000CFEFD0E1DEBFCDBF11E0A0E0B1E0E0E105
:1000A000F6E000E00BBF02C007900D92A030B10750
:1000B000D9F711E0A0E0B1E001C01D92AB32B10769
:1000C000E1F70E946F000C9406030C94000087B3C4
:1000D000876087BB80E58DB981E08EB90895EF9286
:1000E000FF920F931F93CF93DF9387B3876087BBF4
:1000F00080E58DB981E08EB90E946F010E94B8023F
:100100001092220180E962E271E041E00E949602D1
:1001100078940E94BF00C0E9D1E080E4E82E8FE12E
:10012000F82E88EE93E0FE013197F1F70197D9F7A9
:100130000E94BF0080E964E271E042E00E94A702F1
:10014000C7010197F1F71091240100E0809125018A
:1001500090E0802B912B61E071E040E150E00E9443
:10016000C10281E091E00E944101DBCFE2E6F0E0D4
:100170008081886080838081877F808308951FB815
:10018000779BFECF81E08FB9779BFECF8091620095
:1001900088608093620080916200877F8093620014
:1001A00080E49FE10197F1F708951FB8779BFECF98
:1001B00082E08FB9779BFECF809162008860809348
:1001C000620080916200877F8093620008951FB86B
:1001D000779BFECF80EC8FB9779BFECF809162003A
:1001E00088608093620080916200877F80936200C4
:1001F000089580E190E061E050E220EA3FE06FB9CD
:10020000779BFECF5FB9779BFECF4091620048603D
:100210004093620040916200477F40936200F90181
:100220003197F1F7019759F7089591E09FB9779BBE
:10023000FECF8FB9779BFECF80916200886080935C
:10024000620080916200877F8093620080EA9FE075
:100250000197F1F708951FB8779BFECF8CE08FB917
:10026000779BFECF809162008860809362008091CE
:100270006200877F8093620080EA9FE00197F1F738
:1002800008951F9340E050E020E030E011E060E985
:1002900071E01FB9779BFECF480F591FFA014081CB
:1002A0004FB9779BFECF4091620048604093620057
:1002B00040916200477F40936200FB013197F1F764
:1002C0002F5F3F4FA901FC0101900020E9F7E81BD7
:1002D000F90B3297E217F307E0F61F91089580912A
:1002E000610088608093610080E69AEE0197F1F7E3
:1002F00083E090E050E320E63DE61FB8779BFECF19
:100300005FB9779BFECF40916200486040936200E6
:1003100040916200477F40936200F9013197F1F705
:10032000019759F71FB8779BFECF88E38FB9779B6A
:10033000FECF8091620088608093620080916200AD
:10034000877F8093620080E29EE40197F1F71FB8F7
:10035000779BFECF88E08FB9779BFECF80916200BC
:1003600088608093620080916200877F8093620042
:1003700080E29EE40197F1F71FB8779BFECF81E002
:100380008FB9779BFECF8091620088608093620076
:1003900080916200877F8093620080E29EE40197F3
:1003A000F1F71FB8779BFECF86E08FB9779BFECF22
:1003B0008091620088608093620080916200877FF4
:1003C0008093620080E29EE40197F1F71FB8779B6B
:1003D000FECF8EE08FB9779BFECF80916200886060
:1003E0008093620080916200877F8093620080E248
:1003F0009EE40197F1F7089508951F920F920FB6AA
:100400000F920BB60F9211242F933F938F939F93CC
:10041000EF93FF93809171008832E1F18932C8F047
:10042000803409F44DC0813478F1803509F460C01E
:100430008835B1F480910001E0912701F091280105
:10044000E80FF11D80917300808384E9809374002C
:100450000EC0803109F442C08831E1F08830F1F1FA
:10046000809171008093260184E080937400FF9155
:10047000EF919F918F913F912F910F900BBE0F9015
:100480000FBE0F901F901895883351F785EA80931F
:100490007400EDCF8091000190912A018917A8F690
:1004A000E0912701F0912801E80FF11D90819093D0
:1004B00073008F5F8093000185E880937400D7CF2D
:1004C0002091000180912A0130E090E001972817E7
:1004D000390724F585EC80937400C9CF80912901F8
:1004E000809373001092000185E880937400BFCF61
:1004F00020910001E0912701F0912801E20FF11D08
:100500008091730080832F5F2093000180912A01E6
:1005100030E090E0019728173907E4F285E88093EE
:100520007400A5CF8091740081700895909174003B
:1005300090FDFCCF8E7F80932901709328016093FA
:10054000270140932A0185EA8093740008959091D1
:10055000740090FDFCCF8160809329017093280185
:100560006093270140932A0185EA809374000895DF
:100570008FEF80937300109271008CE08093700075
:100580000895FB019F01E8944230C4F04532B4F471
:100590004A3029F497FB1EF4909581959F4F642F64
:1005A00077270E94F202805D8A330CF0895D819387
:1005B000CB010097A1F716F45DE251931082C901B7
:1005C0000C94E202DC01FC01672F71917723E1F7C3
:1005D000329704C07C916D9370836291AE17BF0710
:1005E000C8F30895AA1BBB1B51E107C0AA1FBB1F7C
:1005F000A617B70710F0A61BB70B881F991F5A95AF
:10060000A9F780959095BC01CD010895F894FFCF8E
:00000001FF
