:100000000C9446000C9465000C9465000C946500FB
:100010000C9465000C9465000C9465000C946500CC
:100020000C9465000C9465000C9465000C946500BC
:100030000C9465000C9465000C9465000C946700AA
:100040000C9465000C9465000C9465000C9465009C
:100050000C9465000C9465000C9465000C9465008C
:100060000C9465000C9465000C9465000C9465007C
:100070000C9465000C9465000C9465000C9465006C
:100080000C9465000C9465000C94650011241FBE4F
:10009000CFEFD0E1DEBFCDBF11E0A0E0B1E0ECE2F8
:1000A000F1E000E00BBF02C007900D92A030B10755
:1000B000D9F711E0A0E0B1E001C01D92A130B10775
:1000C000E1F70E9485000C9494000C9400001F92AC
:1000D0000F920FB60F9211248F93809100018F5FC2
:1000E000809300018F910F900FBE0F901F90189575
:1000F00080B7886080BF87B7826087BF83B7896019
:1001000083BF81B78F6781BF08958FEF87BB0E9440
:1001100078007894809100018F3FE1F788B38F5F7A
:0C01200088BB10920001F6CFF894FFCFCE
:00000001FF
