:100000000C9446000C9465000C9465000C946500FB
:100010000C9465000C9465000C9465000C946500CC
:100020000C9424110C9465000C94D1070C94650079
:100030000C9461070C9465000C9465000C946500A9
:100040000C9408070C9465000C9465000C946500F2
:100050000C9465000C94EA060C9465000C94650001
:100060000C9465000C9465000C9465000C9465007C
:100070000C9465000C9465000C9465000C9465006C
:100080000C9465000C9440100C94650011241FBE64
:10009000CFEFD0E1DEBFCDBF11E0A0E0B1E0E8EAF4
:1000A000FEE200E00BBF02C007900D92AE36B10732
:1000B000D9F712E0AEE6B1E001C01D92AD30B10754
:1000C000E1F70E942F0B0C9452170C940000109231
:1000D0008C0110928B0110928E0110928D01109262
:1000E0009601089510928C0110928B0130E03093AC
:1000F0008E0120938D01443009F4D0C0453078F052
:10010000463009F487C0463008F43FC0473009F450
:100110006AC0483009F450C01BBC1ABC0895413075
:1001200009F4A6C04130B0F4843409F428C28534FF
:100130000CF41FC1863409F470C186340CF465C117
:10014000873461F7662309F48EC28DE195E19BBD8A
:100150008ABD0895423009F474C04330E9F684340E
:1001600009F4EDC185340CF426C1863409F45AC172
:1001700086340CF442C1873489F6662309F409C336
:1001800082EA92E09BBD8ABD0895843409F471C16E
:1001900085340CF421C1863409F435C286340CF45C
:1001A000FEC1873409F0BACF662309F461C287EA39
:1001B00090E09BBD8ABD0895843409F445C185341F
:1001C0000CF4E8C0863409F43AC186340CF42FC12B
:1001D000873409F0A3CF662309F417C380E190E0C8
:1001E0009BBD8ABD0895843409F46AC185340CF43A
:1001F000AFC0863409F426C286340CF4C8C18734F3
:1002000009F08CCF662309F483C289E290E09BBD9C
:100210008ABD0895843409F4A2C185340CF487C0E2
:10022000863409F4F5C186340CF4E0C1873409F052
:1002300075CF662309F47BC283E590E09BBD8ABD40
:100240000895843409F483C185340CF45FC0863486
:1002500009F431C186340CF426C1873409F05ECF2D
:10026000662309F428C286E495E09BBD8ABD089503
:10027000843409F45CC18534C4F1863409F4A4C122
:1002800086340CF499C1873409F048CF662309F409
:10029000FEC18DE89AE09BBD8ABD0895843409F4BF
:1002A00066C185348CF0863409F434C186340CF48C
:1002B00029C1873409F032CF662309F424C280E5CE
:1002C00091E09BBD8ABD0895823409F4ABC18334AB
:1002D0000CF0A3C1813409F021CF662309F431C2A7
:1002E0008BE291E09BBD8ABD0895823409F4A2C1DE
:1002F00083340CF05CC1813409F010CF662309F41B
:100300002AC287E699E09BBD8ABD0895823409F42C
:100310009EC183340CF072C1813409F0FFCE662394
:1003200009F4E7C182EB94E09BBD8ABD0895823455
:1003300009F4DBC083340CF0B1C0813409F0EECE97
:10034000662309F4BDC18AE490E09BBD8ABD08958F
:10035000823409F4C2C083340CF0BAC0813409F08D
:10036000DDCE662309F41FC284E290E09BBD8ABD06
:100370000895823409F4D3C083340CF0BEC08134B4
:1003800009F0CCCE662309F409C28EEC92E19BBD44
:100390008ABD0895823409F464C083340CF05CC0D3
:1003A000813409F0BBCE662309F411C28BE090E0E2
:1003B0009BBD8ABD0895823409F410C183340CF0CA
:1003C00008C1813409F0AACE662309F46AC188E520
:1003D00092E09BBD8ABD0895823409F457C08334EE
:1003E0000CF04FC0813409F099CE662309F4F9C1AD
:1003F00085E990E09BBD8ABD0895662309F4FBC1A1
:1004000082E293E09BBD8ABD0895662309F4F8C19A
:1004100089E199E19BBD8ABD08958DE596E19BBD7B
:100420008ABD08958AEC92E09BBD8ABD089566233B
:1004300009F4F0C188E190E09BBD8ABD089582E196
:1004400090E09BBD8ABD0895662309F4C5C18BE188
:1004500090E09BBD8ABD08958CE190E09BBD8ABD74
:100460000895662309F4C2C187E090E09BBD8ABD70
:100470000895662309F4A1C180EE90E09BBD8ABD7A
:1004800008958DEE90E09BBD8ABD0895662309F422
:100490001CC185E890E09BBD8ABD089586E790E089
:1004A0009BBD8ABD0895662309F48CC186E496E05D
:1004B0009BBD8ABD089586E995E09BBD8ABD0895E0
:1004C000662309F475C187E390E09BBD8ABD08955A
:1004D0008AE390E09BBD8ABD0895662309F4FAC0C3
:1004E00080E290E09BBD8ABD0895662309F44CC16B
:1004F00082E490E09BBD8ABD08958CED9DE19BBD9B
:100500008ABD0895662309F43AC180E991E09BBD54
:100510008ABD089584E691E09BBD8ABD0895662357
:1005200009F41EC180EC90E19BBD8ABD089566234D
:1005300009F4B2C086E19EE09BBD8ABD08956623A2
:1005400009F4DCC084E893E09BBD8ABD089566236E
:1005500009F4F2C08AE097E09BBD8ABD0895662346
:1005600009F4F4C08FE690E09BBD8ABD0895662330
:1005700009F49CC081EC91E09BBD8ABD089566237F
:1005800009F4CBC080E39CE19BBD8ABD089566233E
:1005900009F473C081E390E09BBD8ABD0895662392
:1005A00009F4E3C087EC90E09BBD8ABD08958DEE11
:1005B0009EE09BBD8ABD0895662309F44FC08DE877
:1005C0009CE09BBD8ABD08958EE29BE09BBD8ABDE9
:1005D00008958AEB93E09BBD8ABD0895662309F4D4
:1005E0007EC087E192E09BBD8ABD0895662309F431
:1005F0007BC083E690E09BBD8ABD089586E797E0C7
:100600009BBD8ABD089581EB90E09BBD8ABD089596
:1006100088E590E09BBD8ABD08958CED91E09BBD7F
:100620008ABD0895662309F4A5C08BE091E09BBDC7
:100630008ABD0895662309F475C080E698E09BBDE5
:100640008ABD08958BE290E09BBD8ABD0895662324
:10065000C9F08FE294E09BBD8ABD089588ED9BE0D0
:100660009BBD8ABD08958DEE93E19BBD8ABD089523
:100670008EE990E09BBD8ABD08958EE290E09BBD1F
:100680008ABD089583EF93E09BBD8ABD089586EFF0
:1006900099E09BBD8ABD08958CE49DE09BBD8ABD19
:1006A000089587E392E09BBD8ABD089588EA91E0B2
:1006B0009BBD8ABD08958AEF94E09BBD8ABD0895D5
:1006C00086E490E09BBD8ABD08958DE790E09BBDD8
:1006D0008ABD08958EE190E09BBD8ABD089589EFA3
:1006E00091E09BBD8ABD08958DE590E09BBD8ABDDC
:1006F00008958FE694E09BBD8ABD089582E593E05E
:100700009BBD8ABD08958DE391E09BBD8ABD089590
:1007100086E290E09BBD8ABD08958AE99AE19BBD7F
:100720008ABD089587EE97E09BBD8ABD08958EE44B
:1007300090E09BBD8ABD089585EA96E09BBD8ABD89
:1007400008958BE191E09BBD8ABD089589E690E014
:100750009BBD8ABD08958FED98E09BBD8ABD08952D
:1007600080ED9FE09BBD8ABD08958CEB90E09BBD22
:100770008ABD08958CEF90E09BBD8ABD08958AE7FD
:1007800091E09BBD8ABD08958EE390E09BBD8ABD3C
:1007900008958CE792E09BBD8ABD089580EC91E1BD
:1007A0009BBD8ABD089582E290E09BBD8ABD0895FD
:1007B00084E390E09BBD8ABD089583ED90E09BBDEE
:1007C0008ABD08958BEE95E09BBD8ABD089589E0B2
:1007D00090E09BBD8ABD089589E190E09BBD8ABDF4
:1007E00008958DE890E09BBD8ABD089585E090E076
:1007F0009BBD8ABD089585EF92E09BBD8ABD08959B
:1008000082EB97E19BBD8ABD08958DE090E09BBD92
:100810008ABD089585E190E09BBD8ABD0895E1E61B
:10082000F0E080818E7F80831092620080E687B93D
:100830008FEE86B9089549B32091940130919501C6
:10084000220F331F306E50E002C0559547958A95B0
:10085000E2F781E090E040FF02C080E090E0282BCA
:10086000392B309395012093940181E090EF203053
:10087000390709F080E008950F931F93FC018091E0
:10088000C0019091C1018F779093C1018093C00105
:100890002AE030E0CF01B9010E9453138093C201D6
:1008A000CB01B9010E945313182F8093C3014AE072
:1008B0004093C401CF0164E670E00E945313CB0162
:1008C000B9010E945313082F8093C501CF0168EE30
:1008D00073E00E945313CB01B9010E94531380931C
:1008E000C601009751F44093C601002331F44093B0
:1008F000C501112311F44093C30188B3807880654A
:1009000088BB1F910F9108958091C0019091C10102
:1009100080689093C1018093C0012091A201309121
:10092000A3012438310509F440C084FF1BC0809125
:1009300074018D3070F5882309F063C081E08093E5
:10094000C60182E08093C501809175016AE00E9432
:1009500047138093C3019093C20188B38078806568
:1009600088BB0895809174012AE0622F0E9447138A
:100970008093C6019093C501809175010E94471331
:100980008093C3019093C20188B38078806588BB4F
:10099000089590E00C976AE070E00E946713645F2E
:1009A0006093C6018093C501CFCF84FF17C08091AB
:1009B00079018D3080F5882309F040C081E0809373
:1009C000C60182E08093C50180917A016AE00E94AD
:1009D00047138093C3019093C201D6CF80917901D0
:1009E0002AE0622F0E9447138093C6019093C501AD
:1009F00080917A010E9447138093C3019093C201B2
:100A0000C3CF8C30A1F06AE00E9447138093C601E7
:100A10009093C50199CF90E00C976AE070E00E9436
:100A20006713645F6093C6018093C501CDCF8DE0ED
:100A30008093C60182E08093C50186CF8C3041F05F
:100A40006AE00E9447138093C6019093C501BCCF12
:100A50008DE08093C60182E08093C501B5CF87B356
:100A6000876087BB8DB180658DB9709A089587B70F
:100A7000816087BF83B7856083BF0895A29A87B7D7
:100A8000806187BF8DE08EBD8FEF9FEF9BBD8ABDDC
:100A90000895BF9A87B7806487BF89E785BD8FEFC8
:100AA00083BD0895139A82EC80938B0089E1809333
:100AB0008A0084E690E090938100809380008AE52C
:100AC00090E09093870080938600089590E0AC01B9
:100AD000440F551F23E030E0042E02C0220F331FC5
:100AE0000A94E2F770E02623372302C03595279554
:100AF0004A95E2F7DC01A057BE4FEC91EE0FEE0FE6
:100B0000E22BF0E0E95AFE4F30813130E9F032302B
:100B100029F0233059F080E02C930895FC01EE5623
:100B2000FE4F3081315030832330A9F7FC01EE565F
:100B3000FE4F8081982F9250923668F0813970F084
:100B400082E010822C930895FC01EE56FE4F308116
:100B50003F5F3083DECF81E01082F4CF80E01082EF
:100B6000F1CFCF93DF9380E962EB71E042E00E9426
:100B7000EA1080E49FE10197F1F79091B20180E0E3
:100B80002091B301C22FD0E0C82BD92B8091C00196
:100B900081FF6BC0CE01880F991F880F991F880FA6
:100BA000991F8C0F9D1F80569F4F65E070E00E943B
:100BB0005313EB0146E450E0D7FD5BC0ADB7BEB7C1
:100BC0001C970FB6F894BEBF0FBEADBFEDB7FEB712
:100BD000319686EA91E012969C938E93119789E064
:100BE00090E0938382838CE091E095838483CE01AF
:100BF000880F892F881F990B9195978386839E0173
:100C000020763070C901880F991F820F931F880FBB
:100C1000991F880F991F880F991F820F931F969510
:100C20008795929582958F7089279F7089279187E4
:100C30008087538742870E94D8138DB79EB70C9642
:100C40000FB6F8949EBF0FBE8DBF8091C0019091EA
:100C5000C10190FD07C0209729F091609093C101D8
:100C60008093C001DF91CF91089543E450E0D7FF16
:100C7000A5CF8DB79EB70C970FB6F8949EBF0FBE49
:100C80008DBFEDB7FEB7319686EA91E0ADB7BEB73E
:100C900012969C938E93119789E090E093838283C0
:100CA00080E091E0A2CFCF93DF938091C00181FFDC
:100CB0006FC086E40E940D110E94141190E0D82F9D
:100CC000CC270E941411682F70E06C2B7D2B809133
:100CD000C00181FF61C0CB01880F991F880F991F48
:100CE000880F991F860F971F80569F4F65E070E011
:100CF0000E94531326E430E077FD52C0ADB7BEB773
:100D00001C970FB6F894BEBF0FBEADBFEDB7FEB7D0
:100D1000319687EB91E012969C938E93119789E020
:100D200090E09383828385E291E095838483CB0175
:100D3000880F892F881F990B919502979783868337
:100D400060767070CB01880F991F860F971F880FF0
:100D5000991F880F991F880F991F860F971F9695C7
:100D60008795929582958F7089279F7089279187A3
:100D70008087338722870E94D8138DB79EB70C9641
:100D80000FB6F8949EBF0FBE8DBFDF91CF9108952F
:100D900083E40E940D1190CF23E430E077FFAECFC3
:100DA0008DB79EB70C970FB6F8949EBF0FBE8DBF40
:100DB000EDB7FEB7319687EB91E0ADB7BEB71296AF
:100DC0009C938E93119789E090E09383828388E1CE
:100DD00091E0ABCF1F920F920FB60F9211248F9319
:100DE0009F9385B1843658F495B184E6891B83BD01
:100DF0009F918F910F900FBE0F901F90189581E0DB
:100E000083BD9F918F910F900FBE0F901F901895EB
:100E10001F920F920FB60F9211242F938F939F93CF
:100E20008091770190917801019690937801809359
:100E30007701853F9105E9F121E0893E9207C1F0F4
:100E400080918F018F5F80938F01877049F480912B
:100E50008B0190918C01019690938C0180938B0172
:100E60009F918F912F910F900FBE0F901F9018950B
:100E70008091C7018F5F8093C701809176018F5F5A
:100E80008093760110927801109277018091C001D1
:100E90009091C10187FF07C02091C4012A3079F0E9
:100EA0002AE02093C40181609093C1018093C00126
:100EB000C7CF8091C7018F5F8093C701C1CF2BE05F
:100EC000F0CF1F920F920FB60F920BB60F92112414
:100ED000EF92FF920F931F932F933F934F935F9344
:100EE0006F937F938F939F93AF93BF93CF93DF9332
:100EF000EF93FF938091C00185FF0FC085B394E00D
:100F0000892785BB20918B0130918C0180918D01C7
:100F100090918E0128173907C8F4FF91EF91DF9166
:100F2000CF91BF91AF919F918F917F916F915F9181
:100F30004F913F912F911F910F91FF90EF900F9044
:100F40000BBE0F900FBE0F901F9018950E94C813F4
:100F50008C010E94C813EC010E94C8137C010E94FE
:100F6000C8139C01C80167E070E00E946713E82F76
:100F7000CE0162E070E00E946713F82FC70163E0C2
:100F800070E00E946713482F4A5FC90160E170E07A
:100F90000E946713282F8E2F8F5B6F2F0E94720085
:100FA000BCCF1F920F920FB60F920BB60F92112467
:100FB000FF920F931F932F933F934F935F936F93E2
:100FC0007F938F939F93AF93BF93CF93DF93EF93D1
:100FD000FF9320916F0127FD02C010928801F090CD
:100FE0008A013F2D323009F49EC0333010F18F2D2D
:100FF000833009F4AFC0843009F468C0F394F092F0
:101000008A01FF91EF91DF91CF91BF91AF919F91B5
:101010008F917F916F915F914F913F912F911F9190
:101020000F91FF900F900BBE0F900FBE0F901F906F
:101030001895FF2011F58FEF8BBB1ABA80E788BB9C
:10104000C0E0D0E001E010E08C2F0E941B04882358
:1010500061F0C8010C2E02C0880F991F0A94E2F7B4
:1010600020916F01282720936F012196C830D10568
:1010700059F788B38F7588BBC1CF313009F0BECF27
:101080008091A2019091A3018138910509F4D8C102
:101090008238910508F0CDC0009709F02FC127FDD7
:1010A00091C1207A20936F01822F90E00090460139
:1010B00002C0959587950A94E2F780FFC6C08FE736
:1010C00090E09093A3018093A20198CF8091C001FA
:1010D0009091C10186FFA0C02091740130917901E7
:1010E000231709F4C9C130917E01231709F086CF77
:1010F0003091750120917F01321709F07FCF309137
:10110000760120918001321709F078CF2091880173
:1011100024FD74CF80629093C1018093C00120614F
:10112000209388016BCF909189019B3009F43FC1D6
:10113000809176018C3309F42FC1809175018C3335
:1011400009F422C180917401883109F41AC142E086
:10115000F42E54CF2091C0013091C10127FD03C06E
:1011600080E18093C4018091A2019091A301813814
:10117000910509F436C18238910508F06BC00097DB
:1011800009F084C080E0609171010E94660580933F
:101190007001813009F4C8C1823009F41AC220916B
:1011A00047013091480184E690E0821B930B9093B5
:1011B00087008093860081E0609171010E9466053E
:1011C00080937001813009F41BC2823009F43AC265
:1011D0008091850130918401409174018C3340F0FD
:1011E0003F5F309384016CE30E9447139093850125
:1011F0003C3308F057C120918301283138F0822F09
:1012000068E10E944713292F90938301421709F444
:1012100055C1F0908A01F2CE2091880124FDEECED6
:101220008F7D9093C1018093C0012061209388013C
:10123000E5CE8438910509F432CF8838910509F458
:101240002ECF8238910509F42ACF1092A301109273
:10125000A201D4CE8438910509F455C0883891058F
:1012600009F4F3C08238910509F0C8CE4091880195
:1012700047FDC4CE80E190E0822793279093C1017F
:101280008093C001406840938801B8CE8F379105A4
:1012900009F0B4CE4091880145FD0CC080E290E099
:1012A000822793279093C1018093C00140624F7EB3
:1012B000409388013091740130937E012091750133
:1012C00020937F0180917601865F809380018C332B
:1012D00040F06CE30E944713909380012F5F2093AE
:1012E0007F012C3308F48ACE822F6CE30E944713CF
:1012F00090937F013F5F30937E0180CE8F379105C1
:1013000009F0A3CFCCCE81E0609171010E94660507
:1013100080937001813009F4FBC0823009F44DC123
:1013200080E0609171010E946605809370018130B8
:1013300009F4F4C0823009F42EC180917A019091B1
:101340007901983110F0109279018C3338F01092B5
:101350007A01809179018F5F8093790120918801D2
:1013600026FD57CF8091C0019091C1018064909378
:10137000C1018093C001206420938801F0908A010C
:101380003DCE10927401E3CE1092750180917401EC
:101390008F5F80937401D8CE809175018F5F8093A9
:1013A00075019F5F9093890110927601C8CE80915C
:1013B0007601843109F0BECE85E1809376011092EA
:1013C0008901BBCE20FD67C021FD9BC022FDDCC092
:1013D00023FF14CE88E890E09093A3018093A201AC
:1013E0000DCE81E0609171010E94660580937001CD
:1013F000813009F4C3C0823009F4E5C080E0609117
:1014000071010E94660580937001813009F4B0C0BB
:10141000823009F4C9C080917501909174019831AE
:1014200010F0109274018C3308F4F3CE1092750111
:10143000809174018F5F80937401F0908A01DECDFA
:1014400027FF2FCE20FFC0CFC7CF4091880146FD98
:10145000D5CD80E490E0822793279093C1018093BB
:10146000C00140644093880186FDC8CD8F7D909374
:10147000C1018093C001C2CD4091750130917A01C4
:10148000431709F030CE4091760130917B0143172C
:1014900009F029CE3BCE81E890E09093A3018093A0
:1014A000A201ACCD209183012F5F20938301832F74
:1014B0006CE30E944713909384019FCE9091750135
:1014C00080918401981709F0A4CE909176018091C3
:1014D0008501981709F09DCE2091880123FD99CEB2
:1014E0008091C0019091C101877F9D7F9093C10140
:1014F0008093C0018BE08093C40128602093880111
:1015000088CE82E890E09093A3018093A20176CDEB
:10151000809179018F5F8093790102CF80917A0168
:101520008F5F80937A010BCF209147013091480162
:101530002436310530F4265F3F4F30934801209325
:1015400047018091C0019091C10188609093C101D1
:101550008093C00180917401809383018091750113
:1015600080938401809176018D5F809385011BCEED
:10157000809175018F5F809375014FCF80917401C9
:101580008F5F809374013ACF84E890E09093A30139
:101590008093A20133CD80917A01882309F45BC046
:1015A000815080937A01CBCE80917501882309F414
:1015B00054C081508093750130CF80917901815062
:1015C00080937901ADCE8091740181508093740134
:1015D00015CF8091C0019091C10188609093C101A5
:1015E0008093C001209147013091480121153105B8
:1015F00079F12A5030403093480120934701AACF17
:10160000809167019091680144969093680180935E
:1016100067010E9454118091C0019091C1019260B4
:101620009093C1018093C001409174014093830164
:101630003091750130938401809176018D5F8093A4
:101640008501CCCD80916701909168014497DDCFF1
:1016500020E030E07FCF80E072CE80E0DECECF921F
:10166000DF92EF92FF920F931F93CF93DF938091BE
:1016700061008E7F809361001092620080E687B9DE
:101680008FEE86B987B7816087BF83B7856083BFD8
:10169000A29A87B7806187BF8DE08EBD8FEF9FEFE5
:1016A0009BBD8ABDBF9A87B7806487BF89E785BD28
:1016B0000FEF03BD139A82EC80938B0089E1809336
:1016C0008A0084E690E090938100809380008AE510
:1016D00090E0909387008093860087B3876087BBF4
:1016E0008DB180658DB9709A0E94FB100E94E50E45
:1016F00087E690E00E9404110E9436108091C0019C
:101700009091C10191609093C1018093C0018BE0E1
:101710008093C4011092A3011092A2010E940513AC
:101720007894169A03B9129A1A9A1E9A8A9A0E9463
:10173000F8120E94D5108823E1F70E94D9120E9466
:10174000D5108823E1F780E197E220E931E0F90143
:101750003197F1F70197D9F70E9454110E94541163
:101760008091C0019091C1010AE010E0FF24FA9439
:1017700073E0C72E65E0E62E57E0D52EC1E0D0E03D
:1017800083FF08C02091A2013091A30121153105EA
:1017900009F4B6C091FF07C08091A2019091A30106
:1017A000009709F4A2C00E948404FABAFBBA80919F
:1017B0006E01823009F48DC0E82FF0E02091C00165
:1017C0003091C101EE53FE4FE081F0E0EE5CFE4F40
:1017D00090819BBB48B3982F9295907F4078942B33
:1017E00098BB8F5F6E2D0E94471390936E0187B355
:1017F000816F87BB26FF3DC08091C7016D2D0E9480
:101800004713AE0102C0440F551F9A95E2F7CA0173
:1018100040916F014078482B4FB9779BFECF929A49
:1018200092981E981E9A779BFECF8FB1809371017C
:10183000C90120FD3EC086FD20C090FFA1CF809150
:101840007201882309F466C0E0917301F0E0E95465
:10185000FE4F80810E94950E80917301873009F4BC
:1018600076C08F5F809373018091C0019091C10118
:1018700087CF8091B4018FB9D0CF84609093C1019C
:101880008093C001E0917301F0E0E75BFE4F80813F
:101890000E94950E809173018D3019F7109273019B
:1018A00081E060E00E94370D8091C0019091C101FC
:1018B00067CF0E940C130E94B1050E9453068091CD
:1018C000C0019091C1018E7F9093C1018093C001AE
:1018D000B2CF2091C0013091C10127FD18C0C09244
:1018E0006E01E3E0F0E083E06DCF809167019091BD
:1018F0006801B8010E945313CB010E943C0455CFEC
:1019000080914701909148010E943C044ECFE2E053
:10191000F0E058CFE0917301F0E0EA55FE4F80818E
:101920000E94950E80917301873009F09ACF109232
:10193000730182E060E00E94370D809172018F5F39
:10194000809372018091C0019091C10119CF1092D2
:10195000730181E060E00E94370D80917201815037
:10196000809372018091C0019091C1019E7F9093FC
:10197000C1018093C00104CFE2E6F0E0808188607D
:1019800080838081877F808308951FB8779BFECFF7
:1019900081E08FB9779BFECF809162008860809351
:1019A000620080916200877F8093620080E991E00D
:1019B0000197F1F780E49FE10197F1F708951FB8CF
:1019C000779BFECF80E88FB9779BFECF8091620036
:1019D00088608093620080916200877F80936200BC
:1019E00080E991E00197F1F708951FB8779BFECF4A
:1019F00080EC8FB9779BFECF8091620088608093E6
:101A0000620080916200877F8093620080E991E0AC
:101A10000197F1F708951FB8779BFECF8FE08FB93C
:101A2000779BFECF809162008860809362008091F6
:101A30006200877F8093620080E991E00197F1F76F
:101A400008951FB8779BFECF8CE08FB9779BFECFB0
:101A50008091620088608093620080916200877F3D
:101A60008093620080E991E00197F1F70895603179
:101A700020F4813019F08230B9F0089560581FB811
:101A8000779BFECF6FB9779BFECF80916200886015
:101A90008093620080916200877F8093620080E97A
:101AA00091E00197F1F708956054E9CF80E190E06B
:101AB00061E050E220E931E06FB9779BFECF5FB97A
:101AC000779BFECF40916200486040936200409156
:101AD0006200477F40936200F9013197F1F7019767
:101AE00059F70895843608F45BC090E09F5F8456F0
:101AF0008436E0F7992309F453C021E02FB9779B8E
:101B0000FECF905D9FB9779BFECF90916200986069
:101B10009093620090916200977F90936200E0E959
:101B2000F1E03197F1F721E08A30B0F190E09F5F6A
:101B30008A508A30E0F7992379F121E02FB9779B19
:101B4000FECF905D9FB9779BFECF90916200986029
:101B50009093620090916200977F90936200E0E919
:101B6000F1E03197F1F78823E9F0805D91E09FB9CA
:101B7000779BFECF8FB9779BFECF80916200886004
:101B80008093620080916200877F8093620080E989
:101B900091E00197F1F70895213029F790E0CDCF3A
:101BA00020E0C2CF80E3E2CF27E28031920708F441
:101BB000B4C020E02F5F8051974237E28031930715
:101BC000C8F7222309F4A9C031E03FB9779BFECFC3
:101BD000205D2FB9779BFECF209162002860209373
:101BE000620020916200277F20936200E0E9F1E02B
:101BF0003197F1F731E043E0883E940708F489C05B
:101C000020E02F5F885E934043E0883E9407C8F74A
:101C1000222309F47EC031E03FB9779BFECF205DDF
:101C20002FB9779BFECF209162002860209362003D
:101C300020916200277F20936200E0E9F1E0319774
:101C4000F1F731E08436910508F45FC020E02F5FA2
:101C50008456904084369105D0F7222309F455C06C
:101C600031E03FB9779BFECF205D2FB9779BFECF48
:101C70002091620028602093620020916200277FFB
:101C800020936200E0E9F1E03197F1F731E08A302A
:101C90009105B8F120E02F5F0A978A309105D8F7B7
:101CA000222379F131E03FB9779BFECF205D2FB938
:101CB000779BFECF209162002860209362002091E4
:101CC0006200277F20936200E0E9F1E03197F1F7AD
:101CD000009749F1805D91E09FB9779BFECF8FB966
:101CE000779BFECF80916200886080936200809134
:101CF0006200877F8093620080E991E00197F1F7AD
:101D00000895313029F720E0CDCF313051F030E067
:101D1000BECF313021F030E095CF30E06CCF20E005
:101D20007ACF20E09DCF80E3D6CF91E09FB9779B1B
:101D3000FECF8FB9779BFECF809162008860809341
:101D4000620080916200877F8093620080E991E069
:101D50000197F1F7089520E030E060E071E040E99C
:101D600051E07FB9779BFECF280F391FF901208101
:101D70002FB9779BFECF20916200286020936200EC
:101D800020916200277F20936200FA013197F1F7DA
:101D90006F5F262F30E0FC0101900020E9F7E81B7F
:101DA000F90B3297E217F307E0F60895E1E6F0E069
:101DB00080818860808388B388BB87B3876087BB56
:101DC00080E58DB981E08EB90895809161008860C9
:101DD0008093610080E69AEE0197F1F71FB8779B38
:101DE000FECF88E38FB9779BFECF80916200886039
:101DF0008093620080916200877F8093620080E917
:101E000091E00197F1F780E29EE40197F1F71FB8A6
:101E1000779BFECF88E08FB9779BFECF80916200E1
:101E200088608093620080916200877F8093620067
:101E300080E991E00197F1F780E49FE10197F1F7E4
:101E40001FB8779BFECF86E08FB9779BFECF80913E
:101E5000620088608093620080916200877F809337
:101E6000620080E991E00197F1F71FB8779BFECF00
:101E700080E48FB9779BFECF809162008860809369
:101E8000620080916200877F8093620080E991E028
:101E90000197F1F781E08FB9779BFECF8EE08FB984
:101EA000779BFECF80916200886080936200809172
:101EB0006200877F8093620080E991E00197F1F7EB
:101EC00081E08FB9779BFECF8BE18FB9779BFECFF7
:101ED0008091620088608093620080916200877FB9
:101EE0008093620080E991E00197F1F781E08FB97A
:101EF000779BFECF81E18FB9779BFECF8091620007
:101F000088608093620080916200877F8093620086
:101F100080E991E00197F1F781E08FB9779BFECFDF
:101F200081E18FB9779BFECF8091620088608093BA
:101F3000620080916200877F8093620080E991E077
:101F40000197F1F781E08FB9779BFECF81E18FB9DF
:101F5000779BFECF809162008860809362008091C1
:101F60006200877F8093620080E991E00197F1F73A
:101F700081E08FB9779BFECF81E18FB9779BFECF50
:101F80008091620088608093620080916200877F08
:101F90008093620080E991E00197F1F781E08FB9C9
:101FA000779BFECF81E18FB9779BFECF8091620056
:101FB00088608093620080916200877F80936200D6
:101FC00080E991E00197F1F781E08FB9779BFECF2F
:101FD0008FE18FB9779BFECF8091620088608093FC
:101FE000620080916200877F8093620080E991E0C7
:101FF0000197F1F71FB8779BFECF81E08FB9779BF0
:10200000FECF8091620088608093620080916200C0
:10201000877F8093620080E991E00197F1F780E289
:102020009EE40197F1F71FB8779BFECF8CE08FB944
:10203000779BFECF809162008860809362008091E0
:102040006200877F8093620080E991E00197F1F759
:10205000089584E080939D0180E680939E0180E94D
:102060006DE971E042E00E94D910089510929D013F
:1020700080E96DE971E041E00E94D910089508956A
:102080001F920F920FB60F920BB60F9211242F933F
:102090003F938F939F93EF93FF93809171008832CA
:1020A000E1F18932C8F0803409F44DC0813478F10F
:1020B000803509F460C08835B1F480919701E091D2
:1020C000D901F091DA01E80FF11D8091730080834E
:1020D00084E9809374000EC0803109F442C08831D5
:1020E000E1F08830F1F1809171008093D80184E0B3
:1020F00080937400FF91EF919F918F913F912F9169
:102100000F900BBE0F900FBE0F901F901895883345
:1021100051F785EA80937400EDCF809197019091FB
:10212000DC018917A8F6E091D901F091DA01E80FF6
:10213000F11D9081909373008F5F8093970185E8E4
:1021400080937400D7CF209197018091DC0130E01B
:1021500090E001972817390724F585EC80937400E7
:10216000C9CF8091DB01809373001092970185E8BD
:1021700080937400BFCF20919701E091D901F09135
:10218000DA01E20FF11D8091730080832F5F2093AD
:1021900097018091DC0130E090E001972817390722
:1021A000E4F285E880937400A5CF8091740081707B
:1021B00008959091740090FDFCCF8E7F8093DB0199
:1021C0007093DA016093D9014093DC0185EA809332
:1021D000740008959091740090FDFCCF816080930D
:1021E000DB017093DA016093D9014093DC0185EA49
:1021F0008093740008958FEF8093730010927100A4
:102200008CE08093700008959093900089B988E1E4
:102210008AB986E08093950008955D9BFECF8CB9C6
:1022200008958BB1807808955F9BFECF8CB108959F
:10223000FC018081882339F031965D9BFECF8CB9FB
:1022400081918823D1F708951F920F920FB60F92B4
:1022500011248F9381E08093AF0188B7806888BF95
:102260008F910F900FBE0F901F90189584E180936F
:10227000DD0182E26DED71E041E00E94D9100E9423
:10228000D5108823E1F780EB94E00197F1F782E223
:102290006EEF71E041E00E94EA100E94D5108823A1
:1022A000E1F78091FE01089580E28093DD011092B4
:1022B000DE0180916701909168019093DF01809326
:1022C000E0011092E1011092AF0182E26DED71E048
:1022D00045E00E94D910089580E48093DD011092BA
:1022E000DE018091A4019091A5019093DF0180937C
:1022F000E0011092E1011092E2011092AF0182E23E
:102300006DED71E046E00E94D9108091AF01882305
:10231000E1F3089580E48093DD011092DE01809165
:10232000B0019091B1019093DF018093E001109290
:10233000E10181E08093E20182E26DED71E046E02F
:102340000E94D91080E293E020E931E0F901319751
:10235000F1F70197D9F7089580919B0190919C0125
:102360008130910559F181309105F8F08230910565
:1023700041F46091B0017091B10185EB91E00E9450
:10238000411688E991E06091A1010E94341681E133
:102390008093DD0182E26DED71E041E00E94D91091
:1023A00088ED94E00197F1F70895609167017091CD
:1023B000680189E991E00E944116E3CF6091A40190
:1023C0007091A5018FE991E00E944116DACF83E276
:1023D0008093DD0181E08093DE0182E26DED71E0AA
:1023E00042E00E94D9100E94D5108823E1F780EBCB
:1023F00094E00197F1F782E266EE71E048E00E9416
:10240000EA100E94D5108823E1F7089582E28093B4
:10241000DD0181E08093DE0182E26DED71E042E05A
:102420000E94D9100E94D5108823E1F780EB94E038
:102430000197F1F782E266EE71E048E00E94EA104F
:102440000E94D5108823E1F7089582E48093DD018E
:1024500081E08093DE0182E26DED71E042E00E9456
:10246000D9100E94D5108823E1F780EB94E0019702
:10247000F1F782E266EE71E048E00E94EA1008950A
:1024800083E48093DD0181E08093DE0182E26DEDE3
:1024900071E042E00E94D9100E94D5108823E1F734
:1024A00080EB94E00197F1F782E266EE71E048E09C
:1024B0000E94EA10089522E12093DD011092DE01CE
:1024C0009093DF018093E0017093E1016093E2015A
:1024D00082E26DED71E046E00E94D91080E49CE953
:1024E0000197F1F7089585EB91E00E942E169093E5
:1024F000B1018093B00188E991E00E942616809393
:10250000A10181E08093DD0181E58093DE0185E01A
:102510008093DF0182E26DED71E043E00E94D9100B
:1025200080EB94E020E931E0F9013197F1F7019770
:10253000D9F782E093E360E070E00E945B1282E0F2
:1025400091E361E071E00E945B1281E090E061E064
:1025500070E00E945B1208958FE991E00E942E16B0
:102560009093A5018093A40188E991E00E9426162A
:102570008093A10181E08093DD0181E58093DE01FC
:1025800085E08093DF0182E26DED71E043E00E941F
:10259000D91080EB94E020E931E0F9013197F1F7AF
:1025A0000197D9F781E090E061E070E00E945B1252
:1025B000089581E08093DD0180E58093DE0185E070
:1025C0008093DF0182E26DED71E043E00E94D9105B
:1025D00080EB94E020E931E0F9013197F1F70197C0
:1025E000D9F781E090E061E070E00E945B1208950D
:1025F0001F98179A1A9A80E293E00197F1F71A98B8
:1026000080EA8A95F1F71798089589B7806889BF9D
:102610008AB7806C8ABF08950E94D5108823E1F79D
:102620000E94E7118091EA018930B0F0813180F099
:102630008931A8F08132B8F08932C8F08133D8F0FE
:102640008933E8F08134F8F08FEF8093B401089576
:1026500081E08093B40108951092B401089583E05D
:102660008093B401089587E08093B40108958FE0CA
:102670008093B40108958FE18093B40108958FE3AE
:102680008093B40108958FE78093B4010895991B56
:1026900079E004C0991F961708F0961B881F7A9559
:1026A000C9F780950895AA1BBB1B51E107C0AA1F5B
:1026B000BB1FA617B70710F0A61BB70B881F991FE3
:1026C0005A95A9F780959095BC01CD01089597FB87
:1026D000092E07260AD077FD04D0E5DF06D00020BA
:1026E0001AF4709561957F4F0895F6F7909581954E
:1026F0009F4F0895AF92BF92CF92DF92EF92FF92D9
:102700000F931F93CF93DF93EC01688179818A81C6
:102710009B81611571058105910521F464E279EDD4
:102720008BE597E02DE133EF41E050E00E94151773
:1027300079018A0127EA31E440E050E00E94F61670
:102740005B016C01C801B7012CEE34EF4FEF5FEF76
:102750000E94F6166A0D7B1D8C1D9D1D97FF04C0FF
:102760006150704080409048688379838A839B835E
:102770007F77CB01DF91CF911F910F91FF90EF9069
:10278000DF90CF90BF90AF9008950E947A13089584
:1027900089E691E00E947A130895A0E0B0E080936A
:1027A000690190936A01A0936B01B0936C01089545
:1027B0000F931F93DF93CF93CDB7DEB72E970FB64E
:1027C000F894DEBF0FBECDBF0D891E898F89988D0D
:1027D00026E02C831A83098397FF02C080E090E8EB
:1027E00001979E838D839E01255E3F4FCE0101960A
:1027F000698D7A8DA9010E9416144D815E8157FD65
:102800000AC02F813885421753070CF49A01020F32
:10281000131FF80110822E960FB6F894DEBF0FBE7C
:10282000CDBFCF91DF911F910F9108952F923F92CD
:102830004F925F926F927F928F929F92AF92BF92D0
:10284000CF92DF92EF92FF920F931F93DF93CF937C
:10285000CDB7DEB72C970FB6F894DEBF0FBECDBF55
:102860006C011B018A01FC0117821682838181FFA2
:10287000D1C12E010894411C511CF6019381F10134
:1028800093FD859193FF81911F01882309F4BEC1B7
:10289000853239F493FD859193FF81911F01853233
:1028A00029F490E0B6010E945C16E7CFEE24FF24E5
:1028B00020E02032B0F48B3269F08C3228F4803280
:1028C00051F0833271F40BC08D3239F0803349F40A
:1028D00021602CC02260246029C0286027C02061AC
:1028E00025C027FD2CC0382F30533A3098F426FFEE
:1028F00008C08E2D880FE82EEE0CEE0CE80EE30ECD
:1029000015C08F2D880FF82EFF0CFF0CF80EF30E5C
:1029100020620CC08E3221F426FD78C1206406C0EE
:102920008C3611F4206802C0883649F4F10193FD19
:10293000859193FF81911F01882309F0BACF982FC9
:102940009554933018F09052933028F40C5F1F4F39
:10295000FFE3F9830DC0833631F0833771F083359F
:1029600009F060C022C0F801808189830E5F1F4F8B
:10297000420171E0A72EB12C16C062E0662E712CC8
:10298000600E711EF8018080918026FF03C06E2DBD
:1029900070E002C06FEF7FEFC4012C870E945116D8
:1029A0005C0183012C852F7717C052E0652E712CB6
:1029B000600E711EF8018080918026FF03C06E2D8D
:1029C00070E002C06FEF7FEFC4012C870E944616B3
:1029D0005C012C852068830123FD20C008C080E2B3
:1029E00090E0B6012C870E945C16FA942C858F2DFE
:1029F00090E0A816B90698F311C0F40127FD85915F
:102A000027FF81914F0190E0B6012C870E945C1650
:102A10002C85F110FA940894A108B108A114B1040E
:102A200061F7F1C0843611F0893649F527FF08C0F7
:102A3000F80160817181828193810C5F1F4F09C011
:102A4000F80160817181882777FD8095982F0E5F4E
:102A50001F4F4FE6B42EB22297FF09C09095809584
:102A6000709561957F4F8F4F9F4FF0E8BF2AA2016D
:102A70002AE030E00E948816782E741845C0853709
:102A800031F43FEEB32EB2222AE030E025C099EFB8
:102A9000B92EB2228F36C1F0803720F4883509F084
:102AA000B5C00DC0803721F0883709F0AFC002C033
:102AB00020E1B22AB4FE0BC084E0B82A08C0B4FEFC
:102AC00009C0E6E0BE2A06C028E030E005C020E1EB
:102AD00030E002C020E132E0B7FE08C0F8016081BA
:102AE0007181828193810C5F1F4F07C0F801608163
:102AF000718180E090E00E5F1F4FA2010E94881656
:102B0000782E7418FFE7BF22B6FE0BC02EEFB2225C
:102B10007E1438F4B4FE07C0B2FC05C08FEEB822B4
:102B200002C0A72C01C0AE2C8B2D90E0B4FE0DC0CE
:102B3000FE01E70DF11D2081203319F4E9EEBE22DC
:102B400009C0A394B2FE06C004C0867890700097B6
:102B500009F0A3948B2C9924B3FC14C0B0FE0FC0D1
:102B6000AF1428F4E72CEF0CEA18AF2C08C0E72CC0
:102B700006C080E290E0B6010E945C16A394AF14F8
:102B8000C0F304C0AF1410F4FA1801C0FF2484FE8F
:102B90000FC080E390E0B6010E945C1682FE1FC069
:102BA00081FE03C088E590E010C088E790E00DC08A
:102BB000C40186789070009791F081FC02C080E299
:102BC00001C08BE2B7FC8DE290E0B6010E945C167A
:102BD00006C080E390E0B6010E945C16EA947E1481
:102BE000C0F37A94F201E70DF11D808190E0B60107
:102BF0000E945C167720A9F706C080E290E0B6013B
:102C00000E945C16FA94FF20C1F737CEF6012681A8
:102C1000378102C02FEF3FEFC9012C960FB6F89411
:102C2000DEBF0FBECDBFCF91DF911F910F91FF90FF
:102C3000EF90DF90CF90BF90AF909F908F907F905C
:102C40006F905F904F903F902F900895E199FECF45
:102C50009FBB8EBBE09A99278DB30895A8E1B0E0A1
:102C600042E050E00C94E816262FE199FECF9FBB7E
:102C70008EBB2DBB0FB6F894E29AE19A0FBE019677
:102C800008950E943416272F0C943516FC010590E8
:102C9000615070400110D8F7809590958E0F9F1F5E
:102CA0000895FC016150704001900110D8F78095A3
:102CB00090958E0F9F1F08950F931F93CF93DF93CF
:102CC0008C01EB018B8181FF1BC082FF0DC02E8127
:102CD0003F818C819D812817390764F4E881F9814F
:102CE0000193F983E88306C0E885F985802F09956B
:102CF000009731F48E819F8101969F838E8302C05D
:102D00000FEF1FEFC801DF91CF911F910F91089531
:102D1000FA01AA27283051F1203181F1E8946F930C
:102D20006E7F6E5F7F4F8F4F9F4FAF4FB1E03ED0B2
:102D3000B4E03CD0670F781F891F9A1FA11D680F50
:102D4000791F8A1F911DA11D6A0F711D811D911D83
:102D5000A11D20D009F468943F912AE0269F1124F8
:102D60003019305D3193DEF6CF010895462F47705C
:102D7000405D4193B3E00FD0C9F7F6CF462F4F70B7
:102D8000405D4A3318F0495D31FD4052419302D015
:102D9000A9F7EACFB4E0A6959795879577956795BB
:102DA000BA95C9F700976105710508959B01AC01BB
:102DB0000A2E06945795479537952795BA95C9F7E2
:102DC000620F731F841F951FA01D0895DC01CB01A6
:102DD000FC01E199FECF06C0FFBBEEBBE09A319645
:102DE0000DB20D9241505040B8F70895629FD00146
:102DF000739FF001829FE00DF11D649FE00DF11DB6
:102E0000929FF00D839FF00D749FF00D659FF00D64
:102E10009927729FB00DE11DF91F639FB00DE11D51
:102E2000F91FBD01CF011124089597FB092E052636
:102E30000ED057FD04D014D00AD0001C38F45095A1
:102E40004095309521953F4F4F4F5F4F0895F6F7CE
:102E500090958095709561957F4F8F4F9F4F089506
:102E6000A1E21A2EAA1BBB1BFD010DC0AA1FBB1F8E
:102E7000EE1FFF1FA217B307E407F50720F0A21B00
:102E8000B30BE40BF50B661F771F881F991F1A946D
:102E900069F760957095809590959B01AC01BD0197
:082EA000CF010895F894FFCF63
:102EA8002D25642E252D3264202563002025642ECF
:102EB800252D3264202563002D2532642E252D32E0
:102EC8006420256300202532642E252D32642025B8
:102ED8006300C0F9A4B0999282F88098FFFC407909
:102EE8000000000000010532004265617220776130
:102EF800732068657265210001020002000001016B
:0E2F080000000200020100A6220100000000ED
:00000001FF
